{
  "_format": "hh-sol-artifact-1",
  "contractName": "MarketGovernance",
  "sourceName": "contracts/MarketGovernance.sol",
  "abi": [
    {
      "anonymous": false,
      "inputs": [
        {
          "indexed": true,
          "internalType": "address",
          "name": "previousOwner",
          "type": "address"
        },
        {
          "indexed": true,
          "internalType": "address",
          "name": "newOwner",
          "type": "address"
        }
      ],
      "name": "OwnershipTransferred",
      "type": "event"
    },
    {
      "anonymous": false,
      "inputs": [
        {
          "indexed": true,
          "internalType": "address",
          "name": "agent",
          "type": "address"
        },
        {
          "indexed": true,
          "internalType": "uint256",
          "name": "invitationId",
          "type": "uint256"
        },
        {
          "indexed": true,
          "internalType": "uint256",
          "name": "value",
          "type": "uint256"
        }
      ],
      "name": "eInvitationCreated",
      "type": "event"
    },
    {
      "anonymous": false,
      "inputs": [
        {
          "indexed": false,
          "internalType": "address",
          "name": "currency",
          "type": "address"
        },
        {
          "indexed": false,
          "internalType": "bool",
          "name": "support",
          "type": "bool"
        }
      ],
      "name": "eSupportCurrency",
      "type": "event"
    },
    {
      "inputs": [
        {
          "internalType": "address",
          "name": "",
          "type": "address"
        }
      ],
      "name": "_agentFee",
      "outputs": [
        {
          "internalType": "address",
          "name": "agent",
          "type": "address"
        },
        {
          "internalType": "uint256",
          "name": "amount",
          "type": "uint256"
        },
        {
          "internalType": "bool",
          "name": "accepted",
          "type": "bool"
        }
      ],
      "stateMutability": "view",
      "type": "function"
    },
    {
      "inputs": [
        {
          "internalType": "uint256",
          "name": "",
          "type": "uint256"
        }
      ],
      "name": "_agentInvitation",
      "outputs": [
        {
          "internalType": "address",
          "name": "agent",
          "type": "address"
        },
        {
          "internalType": "uint256",
          "name": "feeValue",
          "type": "uint256"
        }
      ],
      "stateMutability": "view",
      "type": "function"
    },
    {
      "inputs": [
        {
          "internalType": "address",
          "name": "",
          "type": "address"
        }
      ],
      "name": "_allowedMarket",
      "outputs": [
        {
          "internalType": "bool",
          "name": "",
          "type": "bool"
        }
      ],
      "stateMutability": "view",
      "type": "function"
    },
    {
      "inputs": [],
      "name": "_baseRate",
      "outputs": [
        {
          "internalType": "uint256",
          "name": "",
          "type": "uint256"
        }
      ],
      "stateMutability": "view",
      "type": "function"
    },
    {
      "inputs": [],
      "name": "_defaultMarketFee",
      "outputs": [
        {
          "internalType": "uint256",
          "name": "",
          "type": "uint256"
        }
      ],
      "stateMutability": "view",
      "type": "function"
    },
    {
      "inputs": [
        {
          "internalType": "address",
          "name": "",
          "type": "address"
        }
      ],
      "name": "_isAgent",
      "outputs": [
        {
          "internalType": "bool",
          "name": "",
          "type": "bool"
        }
      ],
      "stateMutability": "view",
      "type": "function"
    },
    {
      "inputs": [],
      "name": "_marketFeeWallet",
      "outputs": [
        {
          "internalType": "address payable",
          "name": "",
          "type": "address"
        }
      ],
      "stateMutability": "view",
      "type": "function"
    },
    {
      "inputs": [],
      "name": "_maxFeeRate",
      "outputs": [
        {
          "internalType": "uint256",
          "name": "",
          "type": "uint256"
        }
      ],
      "stateMutability": "view",
      "type": "function"
    },
    {
      "inputs": [
        {
          "internalType": "address",
          "name": "",
          "type": "address"
        }
      ],
      "name": "_supportCurrency",
      "outputs": [
        {
          "internalType": "bool",
          "name": "",
          "type": "bool"
        }
      ],
      "stateMutability": "view",
      "type": "function"
    },
    {
      "inputs": [
        {
          "internalType": "address",
          "name": "",
          "type": "address"
        }
      ],
      "name": "_verifySeller",
      "outputs": [
        {
          "internalType": "bool",
          "name": "",
          "type": "bool"
        }
      ],
      "stateMutability": "view",
      "type": "function"
    },
    {
      "inputs": [
        {
          "internalType": "address",
          "name": "agent",
          "type": "address"
        },
        {
          "internalType": "bool",
          "name": "accept",
          "type": "bool"
        }
      ],
      "name": "acceptAgentFee",
      "outputs": [],
      "stateMutability": "nonpayable",
      "type": "function"
    },
    {
      "inputs": [
        {
          "internalType": "address",
          "name": "agent",
          "type": "address"
        }
      ],
      "name": "addAgent",
      "outputs": [],
      "stateMutability": "nonpayable",
      "type": "function"
    },
    {
      "inputs": [
        {
          "internalType": "address",
          "name": "market",
          "type": "address"
        }
      ],
      "name": "addAllowedMarket",
      "outputs": [],
      "stateMutability": "nonpayable",
      "type": "function"
    },
    {
      "inputs": [
        {
          "internalType": "address",
          "name": "erc20",
          "type": "address"
        }
      ],
      "name": "addSupportCurrency",
      "outputs": [],
      "stateMutability": "nonpayable",
      "type": "function"
    },
    {
      "inputs": [
        {
          "internalType": "address",
          "name": "user",
          "type": "address"
        },
        {
          "internalType": "address",
          "name": "currency",
          "type": "address"
        },
        {
          "internalType": "uint256",
          "name": "val",
          "type": "uint256"
        }
      ],
      "name": "addUserBalance",
      "outputs": [],
      "stateMutability": "nonpayable",
      "type": "function"
    },
    {
      "inputs": [
        {
          "internalType": "address",
          "name": "seller",
          "type": "address"
        }
      ],
      "name": "addVerifySeller",
      "outputs": [],
      "stateMutability": "nonpayable",
      "type": "function"
    },
    {
      "inputs": [
        {
          "internalType": "address",
          "name": "addr",
          "type": "address"
        },
        {
          "internalType": "address",
          "name": "currency",
          "type": "address"
        }
      ],
      "name": "balanceOf",
      "outputs": [
        {
          "internalType": "uint256",
          "name": "",
          "type": "uint256"
        }
      ],
      "stateMutability": "view",
      "type": "function"
    },
    {
      "inputs": [
        {
          "internalType": "address",
          "name": "currency",
          "type": "address"
        },
        {
          "internalType": "uint256",
          "name": "amount",
          "type": "uint256"
        }
      ],
      "name": "claim",
      "outputs": [],
      "stateMutability": "nonpayable",
      "type": "function"
    },
    {
      "inputs": [
        {
          "internalType": "uint256",
          "name": "value",
          "type": "uint256"
        }
      ],
      "name": "createAgentInvitation",
      "outputs": [
        {
          "internalType": "uint256",
          "name": "",
          "type": "uint256"
        }
      ],
      "stateMutability": "nonpayable",
      "type": "function"
    },
    {
      "inputs": [],
      "name": "defaultAgentFee",
      "outputs": [
        {
          "internalType": "uint256",
          "name": "",
          "type": "uint256"
        }
      ],
      "stateMutability": "view",
      "type": "function"
    },
    {
      "inputs": [
        {
          "internalType": "address",
          "name": "artist",
          "type": "address"
        }
      ],
      "name": "getAgentFee",
      "outputs": [
        {
          "internalType": "address",
          "name": "agent",
          "type": "address"
        },
        {
          "internalType": "uint256",
          "name": "value",
          "type": "uint256"
        },
        {
          "internalType": "bool",
          "name": "accepted",
          "type": "bool"
        }
      ],
      "stateMutability": "view",
      "type": "function"
    },
    {
      "inputs": [
        {
          "internalType": "uint256",
          "name": "invitationId",
          "type": "uint256"
        }
      ],
      "name": "getAgentInvitation",
      "outputs": [
        {
          "internalType": "address",
          "name": "agent",
          "type": "address"
        },
        {
          "internalType": "uint256",
          "name": "value",
          "type": "uint256"
        }
      ],
      "stateMutability": "view",
      "type": "function"
    },
    {
      "inputs": [
        {
          "internalType": "address",
          "name": "erc20",
          "type": "address"
        }
      ],
      "name": "getSupportCurrency",
      "outputs": [
        {
          "internalType": "bool",
          "name": "supported",
          "type": "bool"
        }
      ],
      "stateMutability": "view",
      "type": "function"
    },
    {
      "inputs": [
        {
          "internalType": "address payable",
          "name": "marketFeeWallet",
          "type": "address"
        },
        {
          "internalType": "uint256",
          "name": "defaultMarketFee",
          "type": "uint256"
        },
        {
          "internalType": "uint256",
          "name": "baseRate",
          "type": "uint256"
        }
      ],
      "name": "initialize",
      "outputs": [],
      "stateMutability": "nonpayable",
      "type": "function"
    },
    {
      "inputs": [
        {
          "internalType": "address",
          "name": "agent",
          "type": "address"
        }
      ],
      "name": "isAgent",
      "outputs": [
        {
          "internalType": "bool",
          "name": "is_agent",
          "type": "bool"
        }
      ],
      "stateMutability": "view",
      "type": "function"
    },
    {
      "inputs": [
        {
          "internalType": "address",
          "name": "seller",
          "type": "address"
        }
      ],
      "name": "isVerifySeller",
      "outputs": [
        {
          "internalType": "bool",
          "name": "",
          "type": "bool"
        }
      ],
      "stateMutability": "view",
      "type": "function"
    },
    {
      "inputs": [
        {
          "internalType": "address",
          "name": "",
          "type": "address"
        }
      ],
      "name": "marketFeeByCurrency",
      "outputs": [
        {
          "internalType": "uint256",
          "name": "",
          "type": "uint256"
        }
      ],
      "stateMutability": "view",
      "type": "function"
    },
    {
      "inputs": [],
      "name": "owner",
      "outputs": [
        {
          "internalType": "address",
          "name": "",
          "type": "address"
        }
      ],
      "stateMutability": "view",
      "type": "function"
    },
    {
      "inputs": [],
      "name": "registerAsAgent",
      "outputs": [],
      "stateMutability": "nonpayable",
      "type": "function"
    },
    {
      "inputs": [
        {
          "internalType": "address",
          "name": "agent",
          "type": "address"
        },
        {
          "internalType": "uint256",
          "name": "invitationId",
          "type": "uint256"
        },
        {
          "internalType": "bool",
          "name": "acceptFee",
          "type": "bool"
        }
      ],
      "name": "registerAsAgentArtist",
      "outputs": [],
      "stateMutability": "nonpayable",
      "type": "function"
    },
    {
      "inputs": [
        {
          "internalType": "address",
          "name": "agent",
          "type": "address"
        }
      ],
      "name": "removeAgent",
      "outputs": [],
      "stateMutability": "nonpayable",
      "type": "function"
    },
    {
      "inputs": [
        {
          "internalType": "address",
          "name": "market",
          "type": "address"
        }
      ],
      "name": "removeAllowedMarket",
      "outputs": [],
      "stateMutability": "nonpayable",
      "type": "function"
    },
    {
      "inputs": [
        {
          "internalType": "address",
          "name": "erc20",
          "type": "address"
        }
      ],
      "name": "removeSupportCurrency",
      "outputs": [],
      "stateMutability": "nonpayable",
      "type": "function"
    },
    {
      "inputs": [
        {
          "internalType": "address",
          "name": "seller",
          "type": "address"
        }
      ],
      "name": "removeVerifySeller",
      "outputs": [],
      "stateMutability": "nonpayable",
      "type": "function"
    },
    {
      "inputs": [],
      "name": "renounceOwnership",
      "outputs": [],
      "stateMutability": "nonpayable",
      "type": "function"
    },
    {
      "inputs": [
        {
          "internalType": "address",
          "name": "artist",
          "type": "address"
        },
        {
          "internalType": "uint256",
          "name": "value",
          "type": "uint256"
        }
      ],
      "name": "setAgentFee",
      "outputs": [],
      "stateMutability": "nonpayable",
      "type": "function"
    },
    {
      "inputs": [
        {
          "internalType": "uint256",
          "name": "rate",
          "type": "uint256"
        }
      ],
      "name": "setBaseRate",
      "outputs": [],
      "stateMutability": "nonpayable",
      "type": "function"
    },
    {
      "inputs": [
        {
          "internalType": "uint256",
          "name": "_feeValue",
          "type": "uint256"
        }
      ],
      "name": "setDefaultAgentFee",
      "outputs": [],
      "stateMutability": "nonpayable",
      "type": "function"
    },
    {
      "inputs": [
        {
          "internalType": "uint256",
          "name": "_value",
          "type": "uint256"
        }
      ],
      "name": "setMaxFeeRate",
      "outputs": [],
      "stateMutability": "nonpayable",
      "type": "function"
    },
    {
      "inputs": [
        {
          "internalType": "uint256",
          "name": "rate",
          "type": "uint256"
        },
        {
          "internalType": "address",
          "name": "currency",
          "type": "address"
        }
      ],
      "name": "setmarketFeeRate",
      "outputs": [],
      "stateMutability": "nonpayable",
      "type": "function"
    },
    {
      "inputs": [
        {
          "internalType": "address payable",
          "name": "wallet",
          "type": "address"
        }
      ],
      "name": "setmarketFeeWallet",
      "outputs": [],
      "stateMutability": "nonpayable",
      "type": "function"
    },
    {
      "inputs": [
        {
          "internalType": "address",
          "name": "newOwner",
          "type": "address"
        }
      ],
      "name": "transferOwnership",
      "outputs": [],
      "stateMutability": "nonpayable",
      "type": "function"
    },
    {
      "inputs": [
        {
          "internalType": "address",
          "name": "",
          "type": "address"
        },
        {
          "internalType": "address",
          "name": "",
          "type": "address"
        }
      ],
      "name": "userBalances",
      "outputs": [
        {
          "internalType": "uint256",
          "name": "",
          "type": "uint256"
        }
      ],
      "stateMutability": "view",
      "type": "function"
    },
    {
      "stateMutability": "payable",
      "type": "receive"
    }
  ],
  "bytecode": "0x608060405260196003556103e860045560196006556032600c5534801561002557600080fd5b50600160005561003433610039565b61008b565b600180546001600160a01b038381166001600160a01b0319831681179093556040519116919082907f8be0079c531659141344cd1fd0a4f28419497f9722a3daafe3b4186f6b6457e090600090a35050565b611f0b8061009a6000396000f3fe6080604052600436106101f05760003560e01c8063148fdaae146101fc5780631d08837b1461021e5780631ffbb0641461023e57806328e6d84f1461028c57806345c7190b146102ac5780635ec12dc9146102d0578063613a53b914610300578063681c87e0146103305780636f0c1b7c14610346578063715018a6146103b6578063747135a8146103cb5780637a1ac61e146103eb5780637c11278e1461040b5780637ec2e2431461042b57806384e79842146104645780638cda96de146104845780638da5cb5b146104a45780638de5b995146104d15780639262ca14146104e7578063927b26b91461051457806397a6278e1461052a578063a465ad5f1461054a578063a4b8db6f1461056a578063a64a3e911461058a578063a700d200146105aa578063a9649417146105ca578063aad3ec96146105ea578063adb519801461060a578063b29ecb5b14610642578063b561266614610662578063bab5a66614610682578063bcb47e9a146106a2578063c0cc384e146106ee578063c5b052241461070e578063c90f65201461075c578063ce9b19c31461078c578063d9f3ce3c146107bc578063e5ec43e9146107dc578063f1440d071461081b578063f2145a7f1461083b578063f2fde38b14610850578063f353465a14610870578063f7888aec1461089057600080fd5b366101f757005b600080fd5b34801561020857600080fd5b5061021c610217366004611b07565b6108d6565b005b34801561022a57600080fd5b5061021c610239366004611c84565b6109ca565b34801561024a57600080fd5b50610277610259366004611b07565b6001600160a01b03166000908152600a602052604090205460ff1690565b60405190151581526020015b60405180910390f35b34801561029857600080fd5b5061021c6102a7366004611b07565b6109fe565b3480156102b857600080fd5b506102c260035481565b604051908152602001610283565b3480156102dc57600080fd5b506102776102eb366004611b07565b60076020526000908152604090205460ff1681565b34801561030c57600080fd5b5061027761031b366004611b07565b600a6020526000908152604090205460ff1681565b34801561033c57600080fd5b506102c260065481565b34801561035257600080fd5b5061038f610361366004611b07565b600b602052600090815260409020805460018201546002909201546001600160a01b03909116919060ff1683565b604080516001600160a01b0390941684526020840192909252151590820152606001610283565b3480156103c257600080fd5b5061021c610a63565b3480156103d757600080fd5b5061021c6103e6366004611b07565b610a9e565b3480156103f757600080fd5b5061021c610406366004611b23565b610b06565b34801561041757600080fd5b5061021c610426366004611bcf565b610be1565b34801561043757600080fd5b50610277610446366004611b07565b6001600160a01b031660009081526007602052604090205460ff1690565b34801561047057600080fd5b5061021c61047f366004611b07565b610cfa565b34801561049057600080fd5b5061021c61049f366004611c84565b610d62565b3480156104b057600080fd5b506104b9610e3c565b6040516001600160a01b039091168152602001610283565b3480156104dd57600080fd5b506102c2600c5481565b3480156104f357600080fd5b506102c2610502366004611b07565b60096020526000908152604090205481565b34801561052057600080fd5b506102c260045481565b34801561053657600080fd5b5061021c610545366004611b07565b610e4b565b34801561055657600080fd5b5061021c610565366004611b8f565b610eb0565b34801561057657600080fd5b5061021c610585366004611c84565b610f30565b34801561059657600080fd5b506005546104b9906001600160a01b031681565b3480156105b657600080fd5b5061021c6105c5366004611b07565b610f88565b3480156105d657600080fd5b5061021c6105e5366004611b07565b611072565b3480156105f657600080fd5b5061021c610605366004611bfc565b6110da565b34801561061657600080fd5b506102c2610625366004611b57565b600d60209081526000928352604080842090915290825290205481565b34801561064e57600080fd5b506102c261065d366004611c84565b6111f1565b34801561066e57600080fd5b5061021c61067d366004611bfc565b6112ba565b34801561068e57600080fd5b5061021c61069d366004611b07565b6113ab565b3480156106ae57600080fd5b5061038f6106bd366004611b07565b6001600160a01b039081166000908152600b6020526040902080546001820154600290920154921692909160ff1690565b3480156106fa57600080fd5b5061021c610709366004611c27565b611410565b34801561071a57600080fd5b5061074e610729366004611c84565b600e60205260009081526040902080546001909101546001600160a01b039091169082565b604051610283929190611cf7565b34801561076857600080fd5b50610277610777366004611b07565b60086020526000908152604090205460ff1681565b34801561079857600080fd5b506102776107a7366004611b07565b600f6020526000908152604090205460ff1681565b3480156107c857600080fd5b506102776107d7366004611b07565b61155c565b3480156107e857600080fd5b5061074e6107f7366004611c84565b6000908152600e6020526040902080546001909101546001600160a01b0390911691565b34801561082757600080fd5b5061021c610836366004611b07565b611592565b34801561084757600080fd5b5061021c6115f8565b34801561085c57600080fd5b5061021c61086b366004611b07565b611683565b34801561087c57600080fd5b5061021c61088b366004611c9c565b611723565b34801561089c57600080fd5b506102c26108ab366004611b57565b6001600160a01b039182166000908152600d6020908152604080832093909416825291909152205490565b336108df610e3c565b6001600160a01b03161461090e5760405162461bcd60e51b815260040161090590611d7a565b60405180910390fd5b6001600160a01b03811660009081526007602052604090205460ff166109745760405162461bcd60e51b815260206004820152601b60248201527a7468652063757272656e63792063616e206e6f742072656d6f766560281b6044820152606401610905565b6001600160a01b0381166000908152600760209081526040808320805460ff19169055600990915280822082905551600080516020611eb6833981519152916109bf91849190611cdc565b60405180910390a150565b336109d3610e3c565b6001600160a01b0316146109f95760405162461bcd60e51b815260040161090590611d7a565b600455565b33610a07610e3c565b6001600160a01b031614610a2d5760405162461bcd60e51b815260040161090590611d7a565b806001600160a01b038116610a4157600080fd5b506001600160a01b03166000908152600f60205260409020805460ff19169055565b33610a6c610e3c565b6001600160a01b031614610a925760405162461bcd60e51b815260040161090590611d7a565b610a9c60006117ef565b565b33610aa7610e3c565b6001600160a01b031614610acd5760405162461bcd60e51b815260040161090590611d7a565b806001600160a01b038116610ae157600080fd5b506001600160a01b03166000908152600f60205260409020805460ff19166001179055565b826001600160a01b038116610b1a57600080fd5b33610b23610e3c565b6001600160a01b031614610b495760405162461bcd60e51b815260040161090590611d7a565b600154600160a01b900460ff1615610ba35760405162461bcd60e51b815260206004820181905260248201527f696e697469616c697a653a20416c726561647920696e697469616c697a6564216044820152606401610905565b50600580546001600160a01b039094166001600160a01b0319909416939093179092556003556004556001805460ff60a01b1916600160a01b179055565b6001600160a01b0382166000908152600a602052604090205460ff16610c535760405162461bcd60e51b815260206004820152602160248201527f41646472657373206973206e6f7420612072656769737465726564206167656e6044820152601d60fa1b6064820152608401610905565b336000908152600b60205260409020546001600160a01b03838116911614610cd65760405162461bcd60e51b815260206004820152603060248201527f41646472657373206973206e6f7420616e206167656e7420666f72207468652060448201526f1cdc1958da599a595908185c9d1a5cdd60821b6064820152608401610905565b336000908152600b60205260409020600201805460ff191691151591909117905550565b33610d03610e3c565b6001600160a01b031614610d295760405162461bcd60e51b815260040161090590611d7a565b806001600160a01b038116610d3d57600080fd5b506001600160a01b03166000908152600a60205260409020805460ff19166001179055565b33610d6b610e3c565b6001600160a01b031614610d915760405162461bcd60e51b815260040161090590611d7a565b600454610d9f826064611841565b1015610ddb5760405162461bcd60e51b815260206004820152600b60248201526a57726f6e672076616c756560a81b6044820152606401610905565b600454606490610df590610def8484611841565b90611854565b10610e375760405162461bcd60e51b815260206004820152601260248201527113585e081d985b1d5948195e18d95959195960721b6044820152606401610905565b600c55565b6001546001600160a01b031690565b33610e54610e3c565b6001600160a01b031614610e7a5760405162461bcd60e51b815260040161090590611d7a565b806001600160a01b038116610e8e57600080fd5b506001600160a01b03166000908152600a60205260409020805460ff19169055565b826001600160a01b038116610ec457600080fd5b336000818152600f602052604090205460ff16610ee057600080fd5b60008311610eed57600080fd5b6001600160a01b038086166000908152600d6020908152604080832093881683529290529081208054859290610f24908490611dde565b90915550505050505050565b33610f39610e3c565b6001600160a01b031614610f5f5760405162461bcd60e51b815260040161090590611d7a565b80600c54811115610f825760405162461bcd60e51b815260040161090590611daf565b50600655565b33610f91610e3c565b6001600160a01b031614610fb75760405162461bcd60e51b815260040161090590611d7a565b6001600160a01b03811660009081526007602052604090205460ff161561101c5760405162461bcd60e51b81526020600482015260196024820152781d1a194818dd5c9c995b98de481a185d99481cdd5c1c1bdc9d603a1b6044820152606401610905565b6001600160a01b0381166000908152600760209081526040808320805460ff191660019081179091556003546009909352928190209190915551600080516020611eb6833981519152916109bf91849190611cdc565b3361107b610e3c565b6001600160a01b0316146110a15760405162461bcd60e51b815260040161090590611d7a565b806001600160a01b0381166110b557600080fd5b506001600160a01b03166000908152600860205260409020805460ff19166001179055565b336000908152600d602090815260408083206001600160a01b038616845290915290205481111561114d5760405162461bcd60e51b815260206004820152601f60248201527f4e6f7420656e6f7567682066756e6473206f6e207468652062616c616e6365006044820152606401610905565b336000908152600d602090815260408083206001600160a01b038616845290915290205461117b9082611860565b336000908152600d602090815260408083206001600160a01b0387168085529252909120919091556111d957604051339082156108fc029083906000818181858888f193505050501580156111d4573d6000803e3d6000fd5b505050565b6111ed6001600160a01b038316338361186c565b5050565b600081600c548111156112165760405162461bcd60e51b815260040161090590611daf565b336000908152600a602052604090205460ff166112455760405162461bcd60e51b815260040161090590611d43565b611253600280546001019055565b600061125e60025490565b6000818152600e602052604080822080546001600160a01b03191633908117825560019091018890559051929350869284927f3590adf6c82211c7a5cb225dedb3b1121485a82a2d5a4c89345e470ce0d9156e91a49392505050565b80600c548111156112dd5760405162461bcd60e51b815260040161090590611daf565b336000908152600a602052604090205460ff1661130c5760405162461bcd60e51b815260040161090590611d43565b6001600160a01b038381166000908152600b602052604090205416331461138b5760405162461bcd60e51b815260206004820152602d60248201527f596f7520617265206e6f7420616e206167656e7420666f72207468652073706560448201526c18da599a595908185c9d1a5cdd609a1b6064820152608401610905565b506001600160a01b039091166000908152600b6020526040902060010155565b336113b4610e3c565b6001600160a01b0316146113da5760405162461bcd60e51b815260040161090590611d7a565b806001600160a01b0381166113ee57600080fd5b506001600160a01b03166000908152600860205260409020805460ff19169055565b6001600160a01b0383166000908152600a602052604090205460ff166114725760405162461bcd60e51b81526020600482015260176024820152761059d95b9d081859191c995cdcc81b9bdd081d985b1a59604a1b6044820152606401610905565b8115611500576000828152600e60205260409020546001600160a01b038481169116146114d65760405162461bcd60e51b815260206004820152601260248201527124b73b30b634b21034b73b34ba30ba34b7b760711b6044820152606401610905565b6000828152600e60209081526040808320600190810154338552600b909352922090910155611517565b600654336000908152600b60205260409020600101555b336000908152600b6020526040902080546001600160a01b0319166001600160a01b03949094169390931783556002909201805460ff19169215159290921790915550565b6000816001600160a01b03811661157257600080fd5b50506001600160a01b031660009081526008602052604090205460ff1690565b3361159b610e3c565b6001600160a01b0316146115c15760405162461bcd60e51b815260040161090590611d7a565b806001600160a01b0381166115d557600080fd5b50600580546001600160a01b0319166001600160a01b0392909216919091179055565b336000908152600a602052604090205460ff16156116675760405162461bcd60e51b815260206004820152602660248201527f596f752061726520616c7265616479207265676973746572656420617320616e604482015265081859d95b9d60d21b6064820152608401610905565b336000908152600a60205260409020805460ff19166001179055565b3361168c610e3c565b6001600160a01b0316146116b25760405162461bcd60e51b815260040161090590611d7a565b6001600160a01b0381166117175760405162461bcd60e51b815260206004820152602660248201527f4f776e61626c653a206e6577206f776e657220697320746865207a65726f206160448201526564647265737360d01b6064820152608401610905565b611720816117ef565b50565b3361172c610e3c565b6001600160a01b0316146117525760405162461bcd60e51b815260040161090590611d7a565b81600c548111156117755760405162461bcd60e51b815260040161090590611daf565b6001600160a01b03821660009081526007602052604090205460ff166117d45760405162461bcd60e51b81526020600482015260146024820152736e6f7420737570706f72742063757272656e637960601b6044820152606401610905565b506001600160a01b0316600090815260096020526040902055565b600180546001600160a01b038381166001600160a01b0319831681179093556040519116919082907f8be0079c531659141344cd1fd0a4f28419497f9722a3daafe3b4186f6b6457e090600090a35050565b600061184d8284611e16565b9392505050565b600061184d8284611df6565b600061184d8284611e35565b6111d48363a9059cbb60e01b848460405160240161188b929190611cf7565b60408051601f198184030181529190526020810180516001600160e01b03166001600160e01b0319909316929092179091526000611912826040518060400160405280602081526020017f5361666545524332303a206c6f772d6c6576656c2063616c6c206661696c6564815250856001600160a01b031661198f9092919063ffffffff16565b8051909150156111d457808060200190518101906119309190611c68565b6111d45760405162461bcd60e51b815260206004820152602a60248201527f5361666545524332303a204552433230206f7065726174696f6e20646964206e6044820152691bdd081cdd58d8d9595960b21b6064820152608401610905565b606061199e84846000856119a6565b949350505050565b606082471015611a075760405162461bcd60e51b815260206004820152602660248201527f416464726573733a20696e73756666696369656e742062616c616e636520666f6044820152651c8818d85b1b60d21b6064820152608401610905565b843b611a555760405162461bcd60e51b815260206004820152601d60248201527f416464726573733a2063616c6c20746f206e6f6e2d636f6e74726163740000006044820152606401610905565b600080866001600160a01b03168587604051611a719190611cc0565b60006040518083038185875af1925050503d8060008114611aae576040519150601f19603f3d011682016040523d82523d6000602084013e611ab3565b606091505b5091509150611ac3828286611ace565b979650505050505050565b60608315611add57508161184d565b825115611aed5782518084602001fd5b8160405162461bcd60e51b81526004016109059190611d10565b600060208284031215611b18578081fd5b813561184d81611e92565b600080600060608486031215611b37578182fd5b8335611b4281611e92565b95602085013595506040909401359392505050565b60008060408385031215611b69578182fd5b8235611b7481611e92565b91506020830135611b8481611e92565b809150509250929050565b600080600060608486031215611ba3578283fd5b8335611bae81611e92565b92506020840135611bbe81611e92565b929592945050506040919091013590565b60008060408385031215611be1578182fd5b8235611bec81611e92565b91506020830135611b8481611ea7565b60008060408385031215611c0e578182fd5b8235611c1981611e92565b946020939093013593505050565b600080600060608486031215611c3b578283fd5b8335611c4681611e92565b9250602084013591506040840135611c5d81611ea7565b809150509250925092565b600060208284031215611c79578081fd5b815161184d81611ea7565b600060208284031215611c95578081fd5b5035919050565b60008060408385031215611cae578182fd5b823591506020830135611b8481611e92565b60008251611cd2818460208701611e4c565b9190910192915050565b6001600160a01b039290921682521515602082015260400190565b6001600160a01b03929092168252602082015260400190565b6020815260008251806020840152611d2f816040850160208701611e4c565b601f01601f19169190910160400192915050565b6020808252601e908201527f596f7520617265206e6f7420612072656769737465726564206167656e740000604082015260600190565b6020808252818101527f4f776e61626c653a2063616c6c6572206973206e6f7420746865206f776e6572604082015260600190565b60208082526015908201527413585e08199959481c985d1948195e18d959591959605a1b604082015260600190565b60008219821115611df157611df1611e7c565b500190565b600082611e1157634e487b7160e01b81526012600452602481fd5b500490565b6000816000190483118215151615611e3057611e30611e7c565b500290565b600082821015611e4757611e47611e7c565b500390565b60005b83811015611e67578181015183820152602001611e4f565b83811115611e76576000848401525b50505050565b634e487b7160e01b600052601160045260246000fd5b6001600160a01b038116811461172057600080fd5b801515811461172057600080fdfe27911f925900ef0bb18a124fd0a2eac96f175ab94eb3dd473f3bf62cd895e1d4a2646970667358221220928a4fe91def949bd89c6143b54d41817e1231dd3116d0551c89a0f74c5a427664736f6c63430008040033",
  "linkReferences": {},
  "deployedLinkReferences": {}
}