{
  "_format": "hh-sol-artifact-1",
  "contractName": "NFT1155P",
  "sourceName": "contracts/NFT1155P.sol",
  "abi": [
    {
      "inputs": [
        {
          "internalType": "string",
          "name": "_name",
          "type": "string"
        },
        {
          "internalType": "string",
          "name": "_symbol",
          "type": "string"
        },
        {
          "internalType": "string",
          "name": "_baseUri",
          "type": "string"
        },
        {
          "internalType": "string",
          "name": "_privateUri",
          "type": "string"
        },
        {
          "internalType": "uint256",
          "name": "maxFeeRate",
          "type": "uint256"
        }
      ],
      "stateMutability": "nonpayable",
      "type": "constructor"
    },
    {
      "anonymous": false,
      "inputs": [
        {
          "indexed": true,
          "internalType": "address",
          "name": "account",
          "type": "address"
        },
        {
          "indexed": true,
          "internalType": "address",
          "name": "operator",
          "type": "address"
        },
        {
          "indexed": false,
          "internalType": "bool",
          "name": "approved",
          "type": "bool"
        }
      ],
      "name": "ApprovalForAll",
      "type": "event"
    },
    {
      "anonymous": false,
      "inputs": [
        {
          "indexed": true,
          "internalType": "address",
          "name": "previousOwner",
          "type": "address"
        },
        {
          "indexed": true,
          "internalType": "address",
          "name": "newOwner",
          "type": "address"
        }
      ],
      "name": "OwnershipTransferred",
      "type": "event"
    },
    {
      "anonymous": false,
      "inputs": [
        {
          "indexed": true,
          "internalType": "address",
          "name": "_royaltyRecipient",
          "type": "address"
        },
        {
          "indexed": true,
          "internalType": "address",
          "name": "_buyer",
          "type": "address"
        },
        {
          "indexed": true,
          "internalType": "uint256",
          "name": "_tokenId",
          "type": "uint256"
        },
        {
          "indexed": false,
          "internalType": "address",
          "name": "_tokenPaid",
          "type": "address"
        },
        {
          "indexed": false,
          "internalType": "uint256",
          "name": "_amount",
          "type": "uint256"
        },
        {
          "indexed": false,
          "internalType": "bytes32",
          "name": "_metadata",
          "type": "bytes32"
        }
      ],
      "name": "RoyaltiesReceived",
      "type": "event"
    },
    {
      "anonymous": false,
      "inputs": [
        {
          "indexed": true,
          "internalType": "address",
          "name": "operator",
          "type": "address"
        },
        {
          "indexed": true,
          "internalType": "address",
          "name": "from",
          "type": "address"
        },
        {
          "indexed": true,
          "internalType": "address",
          "name": "to",
          "type": "address"
        },
        {
          "indexed": false,
          "internalType": "uint256[]",
          "name": "ids",
          "type": "uint256[]"
        },
        {
          "indexed": false,
          "internalType": "uint256[]",
          "name": "values",
          "type": "uint256[]"
        }
      ],
      "name": "TransferBatch",
      "type": "event"
    },
    {
      "anonymous": false,
      "inputs": [
        {
          "indexed": true,
          "internalType": "address",
          "name": "operator",
          "type": "address"
        },
        {
          "indexed": true,
          "internalType": "address",
          "name": "from",
          "type": "address"
        },
        {
          "indexed": true,
          "internalType": "address",
          "name": "to",
          "type": "address"
        },
        {
          "indexed": false,
          "internalType": "uint256",
          "name": "id",
          "type": "uint256"
        },
        {
          "indexed": false,
          "internalType": "uint256",
          "name": "value",
          "type": "uint256"
        }
      ],
      "name": "TransferSingle",
      "type": "event"
    },
    {
      "anonymous": false,
      "inputs": [
        {
          "indexed": false,
          "internalType": "string",
          "name": "value",
          "type": "string"
        },
        {
          "indexed": true,
          "internalType": "uint256",
          "name": "id",
          "type": "uint256"
        }
      ],
      "name": "URI",
      "type": "event"
    },
    {
      "inputs": [],
      "name": "_baseRate",
      "outputs": [
        {
          "internalType": "uint256",
          "name": "",
          "type": "uint256"
        }
      ],
      "stateMutability": "view",
      "type": "function"
    },
    {
      "inputs": [],
      "name": "_defaultRoyalty",
      "outputs": [
        {
          "internalType": "uint256",
          "name": "",
          "type": "uint256"
        }
      ],
      "stateMutability": "view",
      "type": "function"
    },
    {
      "inputs": [],
      "name": "_maxFeeRate",
      "outputs": [
        {
          "internalType": "uint256",
          "name": "",
          "type": "uint256"
        }
      ],
      "stateMutability": "view",
      "type": "function"
    },
    {
      "inputs": [
        {
          "internalType": "address",
          "name": "account",
          "type": "address"
        },
        {
          "internalType": "uint256",
          "name": "id",
          "type": "uint256"
        }
      ],
      "name": "balanceOf",
      "outputs": [
        {
          "internalType": "uint256",
          "name": "",
          "type": "uint256"
        }
      ],
      "stateMutability": "view",
      "type": "function"
    },
    {
      "inputs": [
        {
          "internalType": "address[]",
          "name": "accounts",
          "type": "address[]"
        },
        {
          "internalType": "uint256[]",
          "name": "ids",
          "type": "uint256[]"
        }
      ],
      "name": "balanceOfBatch",
      "outputs": [
        {
          "internalType": "uint256[]",
          "name": "",
          "type": "uint256[]"
        }
      ],
      "stateMutability": "view",
      "type": "function"
    },
    {
      "inputs": [
        {
          "internalType": "address",
          "name": "_to",
          "type": "address"
        },
        {
          "internalType": "uint256[]",
          "name": "_ids",
          "type": "uint256[]"
        },
        {
          "internalType": "uint256[]",
          "name": "_quantities",
          "type": "uint256[]"
        },
        {
          "internalType": "bytes",
          "name": "_data",
          "type": "bytes"
        }
      ],
      "name": "batchMint",
      "outputs": [],
      "stateMutability": "nonpayable",
      "type": "function"
    },
    {
      "inputs": [
        {
          "internalType": "address",
          "name": "account",
          "type": "address"
        },
        {
          "internalType": "uint256",
          "name": "id",
          "type": "uint256"
        },
        {
          "internalType": "uint256",
          "name": "value",
          "type": "uint256"
        }
      ],
      "name": "burn",
      "outputs": [],
      "stateMutability": "nonpayable",
      "type": "function"
    },
    {
      "inputs": [
        {
          "internalType": "address",
          "name": "account",
          "type": "address"
        },
        {
          "internalType": "uint256[]",
          "name": "ids",
          "type": "uint256[]"
        },
        {
          "internalType": "uint256[]",
          "name": "values",
          "type": "uint256[]"
        }
      ],
      "name": "burnBatch",
      "outputs": [],
      "stateMutability": "nonpayable",
      "type": "function"
    },
    {
      "inputs": [],
      "name": "contractURI",
      "outputs": [
        {
          "internalType": "string",
          "name": "",
          "type": "string"
        }
      ],
      "stateMutability": "view",
      "type": "function"
    },
    {
      "inputs": [
        {
          "internalType": "uint256",
          "name": "_initialSupply",
          "type": "uint256"
        },
        {
          "internalType": "string",
          "name": "_tokenUri",
          "type": "string"
        },
        {
          "internalType": "uint256",
          "name": "_royalty",
          "type": "uint256"
        },
        {
          "internalType": "bytes",
          "name": "_data",
          "type": "bytes"
        }
      ],
      "name": "create",
      "outputs": [
        {
          "internalType": "uint256",
          "name": "",
          "type": "uint256"
        }
      ],
      "stateMutability": "nonpayable",
      "type": "function"
    },
    {
      "inputs": [
        {
          "internalType": "uint256",
          "name": "_initialSupply",
          "type": "uint256"
        },
        {
          "internalType": "string",
          "name": "_tokenUri",
          "type": "string"
        },
        {
          "internalType": "uint256",
          "name": "_royalty",
          "type": "uint256"
        },
        {
          "internalType": "uint256",
          "name": "openAt",
          "type": "uint256"
        },
        {
          "internalType": "bytes",
          "name": "_data",
          "type": "bytes"
        }
      ],
      "name": "createPrivate",
      "outputs": [
        {
          "internalType": "uint256",
          "name": "",
          "type": "uint256"
        }
      ],
      "stateMutability": "nonpayable",
      "type": "function"
    },
    {
      "inputs": [
        {
          "internalType": "uint256",
          "name": "",
          "type": "uint256"
        }
      ],
      "name": "creators",
      "outputs": [
        {
          "internalType": "address",
          "name": "",
          "type": "address"
        }
      ],
      "stateMutability": "view",
      "type": "function"
    },
    {
      "inputs": [
        {
          "internalType": "address",
          "name": "account",
          "type": "address"
        },
        {
          "internalType": "address",
          "name": "operator",
          "type": "address"
        }
      ],
      "name": "isApprovedForAll",
      "outputs": [
        {
          "internalType": "bool",
          "name": "",
          "type": "bool"
        }
      ],
      "stateMutability": "view",
      "type": "function"
    },
    {
      "inputs": [
        {
          "internalType": "address",
          "name": "_to",
          "type": "address"
        },
        {
          "internalType": "uint256",
          "name": "_id",
          "type": "uint256"
        },
        {
          "internalType": "uint256",
          "name": "_quantity",
          "type": "uint256"
        },
        {
          "internalType": "bytes",
          "name": "_data",
          "type": "bytes"
        }
      ],
      "name": "mint",
      "outputs": [],
      "stateMutability": "nonpayable",
      "type": "function"
    },
    {
      "inputs": [],
      "name": "name",
      "outputs": [
        {
          "internalType": "string",
          "name": "",
          "type": "string"
        }
      ],
      "stateMutability": "view",
      "type": "function"
    },
    {
      "inputs": [
        {
          "internalType": "address",
          "name": "_royaltyRecipient",
          "type": "address"
        },
        {
          "internalType": "address",
          "name": "_buyer",
          "type": "address"
        },
        {
          "internalType": "uint256",
          "name": "_tokenId",
          "type": "uint256"
        },
        {
          "internalType": "address",
          "name": "_tokenPaid",
          "type": "address"
        },
        {
          "internalType": "uint256",
          "name": "_amount",
          "type": "uint256"
        },
        {
          "internalType": "bytes32",
          "name": "_metadata",
          "type": "bytes32"
        }
      ],
      "name": "onRoyaltiesReceived",
      "outputs": [
        {
          "internalType": "bytes4",
          "name": "",
          "type": "bytes4"
        }
      ],
      "stateMutability": "nonpayable",
      "type": "function"
    },
    {
      "inputs": [],
      "name": "owner",
      "outputs": [
        {
          "internalType": "address",
          "name": "",
          "type": "address"
        }
      ],
      "stateMutability": "view",
      "type": "function"
    },
    {
      "inputs": [],
      "name": "privateUri",
      "outputs": [
        {
          "internalType": "string",
          "name": "",
          "type": "string"
        }
      ],
      "stateMutability": "view",
      "type": "function"
    },
    {
      "inputs": [],
      "name": "renounceOwnership",
      "outputs": [],
      "stateMutability": "nonpayable",
      "type": "function"
    },
    {
      "inputs": [
        {
          "internalType": "uint256",
          "name": "_tokenId",
          "type": "uint256"
        },
        {
          "internalType": "uint256",
          "name": "_salePrice",
          "type": "uint256"
        }
      ],
      "name": "royaltyInfo",
      "outputs": [
        {
          "internalType": "address",
          "name": "receiver",
          "type": "address"
        },
        {
          "internalType": "uint256",
          "name": "amount",
          "type": "uint256"
        }
      ],
      "stateMutability": "view",
      "type": "function"
    },
    {
      "inputs": [
        {
          "internalType": "address",
          "name": "from",
          "type": "address"
        },
        {
          "internalType": "address",
          "name": "to",
          "type": "address"
        },
        {
          "internalType": "uint256[]",
          "name": "ids",
          "type": "uint256[]"
        },
        {
          "internalType": "uint256[]",
          "name": "amounts",
          "type": "uint256[]"
        },
        {
          "internalType": "bytes",
          "name": "data",
          "type": "bytes"
        }
      ],
      "name": "safeBatchTransferFrom",
      "outputs": [],
      "stateMutability": "nonpayable",
      "type": "function"
    },
    {
      "inputs": [
        {
          "internalType": "address",
          "name": "from",
          "type": "address"
        },
        {
          "internalType": "address",
          "name": "to",
          "type": "address"
        },
        {
          "internalType": "uint256",
          "name": "id",
          "type": "uint256"
        },
        {
          "internalType": "uint256",
          "name": "amount",
          "type": "uint256"
        },
        {
          "internalType": "bytes",
          "name": "data",
          "type": "bytes"
        }
      ],
      "name": "safeTransferFrom",
      "outputs": [],
      "stateMutability": "nonpayable",
      "type": "function"
    },
    {
      "inputs": [
        {
          "internalType": "address",
          "name": "operator",
          "type": "address"
        },
        {
          "internalType": "bool",
          "name": "approved",
          "type": "bool"
        }
      ],
      "name": "setApprovalForAll",
      "outputs": [],
      "stateMutability": "nonpayable",
      "type": "function"
    },
    {
      "inputs": [
        {
          "internalType": "string",
          "name": "_newBaseMetadataURI",
          "type": "string"
        }
      ],
      "name": "setBaseMetadataURI",
      "outputs": [],
      "stateMutability": "nonpayable",
      "type": "function"
    },
    {
      "inputs": [
        {
          "internalType": "uint256",
          "name": "rate",
          "type": "uint256"
        }
      ],
      "name": "setBaseRate",
      "outputs": [],
      "stateMutability": "nonpayable",
      "type": "function"
    },
    {
      "inputs": [
        {
          "internalType": "address",
          "name": "_to",
          "type": "address"
        },
        {
          "internalType": "uint256[]",
          "name": "_ids",
          "type": "uint256[]"
        }
      ],
      "name": "setCreator",
      "outputs": [],
      "stateMutability": "nonpayable",
      "type": "function"
    },
    {
      "inputs": [
        {
          "internalType": "uint256",
          "name": "_value",
          "type": "uint256"
        }
      ],
      "name": "setMaxFeeRate",
      "outputs": [],
      "stateMutability": "nonpayable",
      "type": "function"
    },
    {
      "inputs": [
        {
          "internalType": "uint256",
          "name": "_id",
          "type": "uint256"
        },
        {
          "internalType": "uint256",
          "name": "_feeValue",
          "type": "uint256"
        }
      ],
      "name": "setRoyaltyFee",
      "outputs": [],
      "stateMutability": "nonpayable",
      "type": "function"
    },
    {
      "inputs": [
        {
          "internalType": "bytes4",
          "name": "interfaceId",
          "type": "bytes4"
        }
      ],
      "name": "supportsInterface",
      "outputs": [
        {
          "internalType": "bool",
          "name": "",
          "type": "bool"
        }
      ],
      "stateMutability": "view",
      "type": "function"
    },
    {
      "inputs": [],
      "name": "symbol",
      "outputs": [
        {
          "internalType": "string",
          "name": "",
          "type": "string"
        }
      ],
      "stateMutability": "view",
      "type": "function"
    },
    {
      "inputs": [
        {
          "internalType": "uint256",
          "name": "",
          "type": "uint256"
        }
      ],
      "name": "tokenSupply",
      "outputs": [
        {
          "internalType": "uint256",
          "name": "",
          "type": "uint256"
        }
      ],
      "stateMutability": "view",
      "type": "function"
    },
    {
      "inputs": [
        {
          "internalType": "uint256",
          "name": "_id",
          "type": "uint256"
        }
      ],
      "name": "totalSupply",
      "outputs": [
        {
          "internalType": "uint256",
          "name": "",
          "type": "uint256"
        }
      ],
      "stateMutability": "view",
      "type": "function"
    },
    {
      "inputs": [
        {
          "internalType": "address",
          "name": "newOwner",
          "type": "address"
        }
      ],
      "name": "transferOwnership",
      "outputs": [],
      "stateMutability": "nonpayable",
      "type": "function"
    },
    {
      "inputs": [
        {
          "internalType": "uint256",
          "name": "_id",
          "type": "uint256"
        }
      ],
      "name": "uri",
      "outputs": [
        {
          "internalType": "string",
          "name": "",
          "type": "string"
        }
      ],
      "stateMutability": "view",
      "type": "function"
    }
  ],
  "bytecode": "0x60806040526103e8600d556019600f553480156200001c57600080fd5b5060405162003157380380620031578339810160408190526200003f9162000285565b826200004b33620000c3565b620000568162000113565b5084516200006c90600a9060208801906200012c565b5083516200008290600b9060208701906200012c565b5082516200009890600c9060208601906200012c565b508151620000ae9060099060208501906200012c565b506103e8600d55600e55506200039692505050565b600080546001600160a01b038381166001600160a01b0319831681178455604051919092169283917f8be0079c531659141344cd1fd0a4f28419497f9722a3daafe3b4186f6b6457e09190a35050565b8051620001289060039060208401906200012c565b5050565b8280546200013a9062000343565b90600052602060002090601f0160209004810192826200015e5760008555620001a9565b82601f106200017957805160ff1916838001178555620001a9565b82800160010185558215620001a9579182015b82811115620001a95782518255916020019190600101906200018c565b50620001b7929150620001bb565b5090565b5b80821115620001b75760008155600101620001bc565b600082601f830112620001e3578081fd5b81516001600160401b038082111562000200576200020062000380565b604051601f8301601f19908116603f011681019082821181831017156200022b576200022b62000380565b8160405283815260209250868385880101111562000247578485fd5b8491505b838210156200026a57858201830151818301840152908201906200024b565b838211156200027b57848385830101525b9695505050505050565b600080600080600060a086880312156200029d578081fd5b85516001600160401b0380821115620002b4578283fd5b620002c289838a01620001d2565b96506020880151915080821115620002d8578283fd5b620002e689838a01620001d2565b95506040880151915080821115620002fc578283fd5b6200030a89838a01620001d2565b9450606088015191508082111562000320578283fd5b506200032f88828901620001d2565b925050608086015190509295509295909350565b600181811c908216806200035857607f821691505b602082108114156200037a57634e487b7160e01b600052602260045260246000fd5b50919050565b634e487b7160e01b600052604160045260246000fd5b612db180620003a66000396000f3fe608060405234801561001057600080fd5b50600436106101955760003560e01c8062fdd58e1461019a57806301ffc9a7146101c057806306fdde03146101e35780630e89341c146101f85780631d08837b1461020b5780632693ebf2146102205780632a55205a146102405780632eb2c2d6146102725780634e1273f4146102855780634e30ff2d146102a55780636b20c454146102b8578063715018a6146102cb578063731133e9146102d35780637e518ec8146102e65780638c51f914146102f95780638cda96de1461030c5780638da5cb5b1461031f5780638de5b9951461033f578063927b26b91461034857806395d89b4114610351578063a22cb46514610359578063b48ab8b61461036c578063b50dbfec1461037f578063bd85b03914610387578063c1c01ee6146103a7578063cd53d08e146103b0578063d2a6b51a146103d9578063de088f2b146103ec578063e8a3d485146103ff578063e8cb9d9914610407578063e985e9c514610433578063f242432a1461046f578063f2fde38b14610482578063f5298aca14610495575b600080fd5b6101ad6101a8366004612334565b6104a8565b6040519081526020015b60405180910390f35b6101d36101ce3660046124a1565b610541565b60405190151581526020016101b7565b6101eb610552565b6040516101b791906127e6565b6101eb610206366004612513565b6105e0565b61021e610219366004612513565b610760565b005b6101ad61022e366004612513565b60066020526000908152604090205481565b61025361024e3660046125e8565b610794565b604080516001600160a01b0390931683526020830191909152016101b7565b61021e610280366004612046565b6107d9565b6102986102933660046123e1565b610870565b6040516101b791906127a5565b61021e6102b33660046125e8565b6109d1565b61021e6102c63660046121f6565b610a43565b61021e610a8b565b61021e6102e136600461238f565b610ac6565b61021e6102f43660046124d9565b610b3c565b6101ad61030736600461252b565b610b8b565b61021e61031a366004612513565b610c5b565b610327610d2f565b6040516001600160a01b0390911681526020016101b7565b6101ad600e5481565b6101ad600d5481565b6101eb610d3e565b61021e6103673660046122fa565b610d4b565b61021e61037a366004612266565b610e22565b6101eb610f21565b6101ad610395366004612513565b60009081526006602052604090205490565b6101ad600f5481565b6103276103be366004612513565b6005602052600090815260409020546001600160a01b031681565b61021e6103e73660046121ab565b610f2e565b6101ad6103fa366004612585565b610fcb565b6101eb6110dc565b61041a6104153660046120eb565b61116e565b6040516001600160e01b031990911681526020016101b7565b6101d361044136600461201d565b6001600160a01b03918216600090815260026020908152604080832093909416825291909152205460ff1690565b61021e61047d366004612149565b6111f1565b61021e610490366004612003565b611236565b61021e6104a336600461235d565b6112d3565b60006001600160a01b0383166105195760405162461bcd60e51b815260206004820152602b60248201527f455243313135353a2062616c616e636520717565727920666f7220746865207a60448201526a65726f206164647265737360a81b60648201526084015b60405180910390fd5b5060009081526001602090815260408083206001600160a01b03949094168352929052205490565b600061054c82611316565b92915050565b600a805461055f90612bb6565b80601f016020809104026020016040519081016040528092919081815260200182805461058b90612bb6565b80156105d85780601f106105ad576101008083540402835291602001916105d8565b820191906000526020600020905b8154815290600101906020018083116105bb57829003601f168201915b505050505081565b6000818152600560205260409020546060906001600160a01b031661063b5760405162461bcd60e51b81526020600482015260116024820152702727a722ac24a9aa22a72a2faa27a5a2a760791b6044820152606401610510565b600082815260086020526040902054156106f7576000828152600860205260409020544210156106f7576009805461067290612bb6565b80601f016020809104026020016040519081016040528092919081815260200182805461069e90612bb6565b80156106eb5780601f106106c0576101008083540402835291602001916106eb565b820191906000526020600020905b8154815290600101906020018083116106ce57829003601f168201915b50505050509050919050565b6000828152600760205260408120805461071090612bb6565b90501115610731576000828152600760205260409020805461067290612bb6565b600c8260405160200161074592919061268e565b6040516020818303038152906040529050919050565b919050565b33610769610d2f565b6001600160a01b03161461078f5760405162461bcd60e51b815260040161051090612a21565b600d55565b600082815260106020526040812080546001909101546001600160a01b0390911691906107d0906103e8906107ca908690611366565b90611379565b90509250929050565b6001600160a01b0385163314806107f557506107f58533610441565b61085c5760405162461bcd60e51b815260206004820152603260248201527f455243313135353a207472616e736665722063616c6c6572206973206e6f74206044820152711bdddb995c881b9bdc88185c1c1c9bdd995960721b6064820152608401610510565b6108698585858585611385565b5050505050565b606081518351146108d55760405162461bcd60e51b815260206004820152602960248201527f455243313135353a206163636f756e747320616e6420696473206c656e677468604482015268040dad2e6dac2e8c6d60bb1b6064820152608401610510565b600083516001600160401b038111156108fe57634e487b7160e01b600052604160045260246000fd5b604051908082528060200260200182016040528015610927578160200160208202803683370190505b50905060005b84518110156109c95761098e85828151811061095957634e487b7160e01b600052603260045260246000fd5b602002602001015185838151811061098157634e487b7160e01b600052603260045260246000fd5b60200260200101516104a8565b8282815181106109ae57634e487b7160e01b600052603260045260246000fd5b60209081029190910101526109c281612c1d565b905061092d565b509392505050565b60008281526005602052604090205482906001600160a01b03163314610a095760405162461bcd60e51b815260040161051090612a85565b81600e54811115610a2c5760405162461bcd60e51b815260040161051090612a56565b505060009182526010602052604090912060010155565b6001600160a01b038316331480610a5f5750610a5f8333610441565b610a7b5760405162461bcd60e51b815260040161051090612906565b610a8683838361153c565b505050565b33610a94610d2f565b6001600160a01b031614610aba5760405162461bcd60e51b815260040161051090612a21565b610ac460006116d7565b565b60008381526005602052604090205483906001600160a01b03163314610afe5760405162461bcd60e51b815260040161051090612a85565b610b0a85858585611727565b600084815260066020526040902054610b2390846117ed565b6000948552600660205260409094209390935550505050565b33610b45610d2f565b6001600160a01b031614610b6b5760405162461bcd60e51b815260040161051090612a21565b8051610b7e90600c906020840190611e71565b50610b88816117f9565b50565b6000610b9b600480546001019055565b6000610ba660045490565b600081815260056020908152604080832080546001600160a01b03191633179055600782529091208751929350610be1929091880190611e71565b50600081815260106020526040902080546001600160a01b03191633178155600101849055845115610c345780600080516020612d5c83398151915286604051610c2b91906127e6565b60405180910390a25b610c4033828886611727565b60008181526006602052604090208690559050949350505050565b33610c64610d2f565b6001600160a01b031614610c8a5760405162461bcd60e51b815260040161051090612a21565b600d54610c98826064611366565b1015610cd45760405162461bcd60e51b815260206004820152600b60248201526a57726f6e672076616c756560a81b6044820152606401610510565b600d54606490610ce8906107ca8484611366565b10610d2a5760405162461bcd60e51b815260206004820152601260248201527113585e081d985b1d5948195e18d95959195960721b6044820152606401610510565b600e55565b6000546001600160a01b031690565b600b805461055f90612bb6565b336001600160a01b0383161415610db65760405162461bcd60e51b815260206004820152602960248201527f455243313135353a2073657474696e6720617070726f76616c20737461747573604482015268103337b91039b2b63360b91b6064820152608401610510565b3360008181526002602090815260408083206001600160a01b03871680855290835292819020805460ff191686151590811790915590519081529192917f17307eab39ab6107e8899845ad3d59bd9653f200f220920489ca2b5937696c31910160405180910390a35050565b60005b8351811015610f0e576000848281518110610e5057634e487b7160e01b600052603260045260246000fd5b602090810291909101810151600081815260059092526040909120549091506001600160a01b03163314610e965760405162461bcd60e51b815260040161051090612a85565b6000848381518110610eb857634e487b7160e01b600052603260045260246000fd5b60200260200101519050610ee88160066000858152602001908152602001600020546117ed90919063ffffffff16565b600092835260066020526040909220919091555080610f0681612c1d565b915050610e25565b50610f1b84848484611810565b50505050565b6009805461055f90612bb6565b6001600160a01b038216610f765760405162461bcd60e51b815260206004820152600f60248201526e496e76616c6964206164647265737360881b6044820152606401610510565b60005b8151811015610a86576000828281518110610fa457634e487b7160e01b600052603260045260246000fd5b60200260200101519050610fb88482611975565b5080610fc381612c1d565b915050610f79565b600083600e54811115610ff05760405162461bcd60e51b815260040161051090612a56565b610ffe600480546001019055565b600061100960045490565b600081815260056020908152604080832080546001600160a01b031916331790556007825290912089519293506110449290918a0190611e71565b5060008181526008602090815260408083208890556010909152812080546001600160a01b031916331781556001018790556009805461108390612bb6565b905011156110b35780600080516020612d5c83398151915260096040516110aa91906127f9565b60405180910390a25b6110bf33828a87611727565b600081815260066020526040902088905591505095945050505050565b6060600c80546110eb90612bb6565b80601f016020809104026020016040519081016040528092919081815260200182805461111790612bb6565b80156111645780601f1061113957610100808354040283529160200191611164565b820191906000526020600020905b81548152906001019060200180831161114757829003601f168201915b5050505050905090565b604080516001600160a01b038581168252602082018590529181018390526000918691818916918a16907f0fb6148a1327df610b19fe6e8b3721091048fabcee4e029d0fc14af6ac6b98469060600160405180910390a4507fe8cb9d992e917b09efbea9011da19409f5d85d7ec2a0d2b9861b32ef44c757c89695505050505050565b6001600160a01b03851633148061120d575061120d8533610441565b6112295760405162461bcd60e51b815260040161051090612906565b61086985858585856119dc565b3361123f610d2f565b6001600160a01b0316146112655760405162461bcd60e51b815260040161051090612a21565b6001600160a01b0381166112ca5760405162461bcd60e51b815260206004820152602660248201527f4f776e61626c653a206e6577206f776e657220697320746865207a65726f206160448201526564647265737360d01b6064820152608401610510565b610b88816116d7565b6001600160a01b0383163314806112ef57506112ef8333610441565b61130b5760405162461bcd60e51b815260040161051090612906565b610a86838383611aeb565b60006001600160e01b03198216636cdb3d1360e11b148061134757506001600160e01b031982166303a24d0760e21b145b8061054c57506301ffc9a760e01b6001600160e01b031983161461054c565b60006113728284612b97565b9392505050565b60006113728284612b77565b81518351146113a65760405162461bcd60e51b815260040161051090612ab3565b6001600160a01b0384166113cc5760405162461bcd60e51b81526004016105109061294f565b336113db818787878787611bde565b60005b84518110156114e057600085828151811061140957634e487b7160e01b600052603260045260246000fd5b60200260200101519050600085838151811061143557634e487b7160e01b600052603260045260246000fd5b60209081029190910181015160008481526001835260408082206001600160a01b038e1683529093529190912054909150818110156114865760405162461bcd60e51b8152600401610510906129d7565b60008381526001602090815260408083206001600160a01b038e8116855292528083208585039055908b168252812080548492906114c5908490612b5f565b92505081905550505050806114d990612c1d565b90506113de565b50846001600160a01b0316866001600160a01b0316826001600160a01b0316600080516020612d1c833981519152878760405161151e9291906127b8565b60405180910390a4611534818787878787611be3565b505050505050565b6001600160a01b0383166115625760405162461bcd60e51b815260040161051090612994565b80518251146115835760405162461bcd60e51b815260040161051090612ab3565b60003390506115a681856000868660405180602001604052806000815250611bde565b60005b835181101561168a5760008482815181106115d457634e487b7160e01b600052603260045260246000fd5b60200260200101519050600084838151811061160057634e487b7160e01b600052603260045260246000fd5b60209081029190910181015160008481526001835260408082206001600160a01b038c1683529093529190912054909150818110156116515760405162461bcd60e51b8152600401610510906128c2565b60009283526001602090815260408085206001600160a01b038b168652909152909220910390558061168281612c1d565b9150506115a9565b5060006001600160a01b0316846001600160a01b0316826001600160a01b0316600080516020612d1c83398151915286866040516116c99291906127b8565b60405180910390a450505050565b600080546001600160a01b038381166001600160a01b0319831681178455604051919092169283917f8be0079c531659141344cd1fd0a4f28419497f9722a3daafe3b4186f6b6457e09190a35050565b6001600160a01b03841661174d5760405162461bcd60e51b815260040161051090612afb565b3361176d8160008761175e88611d4e565b61176788611d4e565b87611bde565b60008481526001602090815260408083206001600160a01b03891684529091528120805485929061179f908490612b5f565b909155505060408051858152602081018590526001600160a01b038088169260009291851691600080516020612d3c833981519152910160405180910390a461086981600087878787611da7565b60006113728284612b5f565b805161180c906003906020840190611e71565b5050565b6001600160a01b0384166118365760405162461bcd60e51b815260040161051090612afb565b81518351146118575760405162461bcd60e51b815260040161051090612ab3565b3361186781600087878787611bde565b60005b845181101561191f5783818151811061189357634e487b7160e01b600052603260045260246000fd5b6020026020010151600160008784815181106118bf57634e487b7160e01b600052603260045260246000fd5b602002602001015181526020019081526020016000206000886001600160a01b03166001600160a01b0316815260200190815260200160002060008282546119079190612b5f565b9091555081905061191781612c1d565b91505061186a565b50846001600160a01b031660006001600160a01b0316826001600160a01b0316600080516020612d1c833981519152878760405161195e9291906127b8565b60405180910390a461086981600087878787611be3565b60008181526005602052604090205481906001600160a01b031633146119ad5760405162461bcd60e51b815260040161051090612a85565b50600090815260056020526040902080546001600160a01b0319166001600160a01b0392909216919091179055565b6001600160a01b038416611a025760405162461bcd60e51b81526004016105109061294f565b33611a1281878761175e88611d4e565b60008481526001602090815260408083206001600160a01b038a16845290915290205483811015611a555760405162461bcd60e51b8152600401610510906129d7565b60008581526001602090815260408083206001600160a01b038b8116855292528083208785039055908816825281208054869290611a94908490612b5f565b909155505060408051868152602081018690526001600160a01b03808916928a82169291861691600080516020612d3c833981519152910160405180910390a4611ae2828888888888611da7565b50505050505050565b6001600160a01b038316611b115760405162461bcd60e51b815260040161051090612994565b33611b4081856000611b2287611d4e565b611b2b87611d4e565b60405180602001604052806000815250611bde565b60008381526001602090815260408083206001600160a01b038816845290915290205482811015611b835760405162461bcd60e51b8152600401610510906128c2565b60008481526001602090815260408083206001600160a01b0389811680865291845282852088870390558251898152938401889052909290861691600080516020612d3c833981519152910160405180910390a45050505050565b611534565b6001600160a01b0384163b156115345760405163bc197c8160e01b81526001600160a01b0385169063bc197c8190611c279089908990889088908890600401612702565b602060405180830381600087803b158015611c4157600080fd5b505af1925050508015611c71575060408051601f3d908101601f19168201909252611c6e918101906124bd565b60015b611d1e57611c7d612c64565b806308c379a01415611cb75750611c92612c7c565b80611c9d5750611cb9565b8060405162461bcd60e51b815260040161051091906127e6565b505b60405162461bcd60e51b815260206004820152603460248201527f455243313135353a207472616e7366657220746f206e6f6e20455243313135356044820152732932b1b2b4bb32b91034b6b83632b6b2b73a32b960611b6064820152608401610510565b6001600160e01b0319811663bc197c8160e01b14611ae25760405162461bcd60e51b81526004016105109061287a565b60408051600180825281830190925260609160009190602080830190803683370190505090508281600081518110611d9657634e487b7160e01b600052603260045260246000fd5b602090810291909101015292915050565b6001600160a01b0384163b156115345760405163f23a6e6160e01b81526001600160a01b0385169063f23a6e6190611deb9089908990889088908890600401612760565b602060405180830381600087803b158015611e0557600080fd5b505af1925050508015611e35575060408051601f3d908101601f19168201909252611e32918101906124bd565b60015b611e4157611c7d612c64565b6001600160e01b0319811663f23a6e6160e01b14611ae25760405162461bcd60e51b81526004016105109061287a565b828054611e7d90612bb6565b90600052602060002090601f016020900481019282611e9f5760008555611ee5565b82601f10611eb857805160ff1916838001178555611ee5565b82800160010185558215611ee5579182015b82811115611ee5578251825591602001919060010190611eca565b50611ef1929150611ef5565b5090565b5b80821115611ef15760008155600101611ef6565b80356001600160a01b038116811461075b57600080fd5b600082601f830112611f31578081fd5b81356020611f3e82612b3c565b604051611f4b8282612bf1565b8381528281019150858301600585901b87018401881015611f6a578586fd5b855b85811015611f8857813584529284019290840190600101611f6c565b5090979650505050505050565b600082601f830112611fa5578081fd5b81356001600160401b03811115611fbe57611fbe612c4e565b604051611fd5601f8301601f191660200182612bf1565b818152846020838601011115611fe9578283fd5b816020850160208301379081016020019190915292915050565b600060208284031215612014578081fd5b61137282611f0a565b6000806040838503121561202f578081fd5b61203883611f0a565b91506107d060208401611f0a565b600080600080600060a0868803121561205d578081fd5b61206686611f0a565b945061207460208701611f0a565b935060408601356001600160401b038082111561208f578283fd5b61209b89838a01611f21565b945060608801359150808211156120b0578283fd5b6120bc89838a01611f21565b935060808801359150808211156120d1578283fd5b506120de88828901611f95565b9150509295509295909350565b60008060008060008060c08789031215612103578081fd5b61210c87611f0a565b955061211a60208801611f0a565b94506040870135935061212f60608801611f0a565b92506080870135915060a087013590509295509295509295565b600080600080600060a08688031215612160578081fd5b61216986611f0a565b945061217760208701611f0a565b9350604086013592506060860135915060808601356001600160401b0381111561219f578182fd5b6120de88828901611f95565b600080604083850312156121bd578182fd5b6121c683611f0a565b915060208301356001600160401b038111156121e0578182fd5b6121ec85828601611f21565b9150509250929050565b60008060006060848603121561220a578081fd5b61221384611f0a565b925060208401356001600160401b038082111561222e578283fd5b61223a87838801611f21565b9350604086013591508082111561224f578283fd5b5061225c86828701611f21565b9150509250925092565b6000806000806080858703121561227b578182fd5b61228485611f0a565b935060208501356001600160401b038082111561229f578384fd5b6122ab88838901611f21565b945060408701359150808211156122c0578384fd5b6122cc88838901611f21565b935060608701359150808211156122e1578283fd5b506122ee87828801611f95565b91505092959194509250565b6000806040838503121561230c578182fd5b61231583611f0a565b915060208301358015158114612329578182fd5b809150509250929050565b60008060408385031215612346578182fd5b61234f83611f0a565b946020939093013593505050565b600080600060608486031215612371578081fd5b61237a84611f0a565b95602085013595506040909401359392505050565b600080600080608085870312156123a4578182fd5b6123ad85611f0a565b9350602085013592506040850135915060608501356001600160401b038111156123d5578182fd5b6122ee87828801611f95565b600080604083850312156123f3578182fd5b82356001600160401b0380821115612409578384fd5b818501915085601f83011261241c578384fd5b8135602061242982612b3c565b6040516124368282612bf1565b8381528281019150858301600585901b870184018b1015612455578889fd5b8896505b8487101561247e5761246a81611f0a565b835260019690960195918301918301612459565b5096505086013592505080821115612494578283fd5b506121ec85828601611f21565b6000602082840312156124b2578081fd5b813561137281612d05565b6000602082840312156124ce578081fd5b815161137281612d05565b6000602082840312156124ea578081fd5b81356001600160401b038111156124ff578182fd5b61250b84828501611f95565b949350505050565b600060208284031215612524578081fd5b5035919050565b60008060008060808587031215612540578182fd5b8435935060208501356001600160401b038082111561255d578384fd5b61256988838901611f95565b94506040870135935060608701359150808211156122e1578283fd5b600080600080600060a0868803121561259c578283fd5b8535945060208601356001600160401b03808211156125b9578485fd5b6125c589838a01611f95565b9550604088013594506060880135935060808801359150808211156120d1578283fd5b600080604083850312156125fa578182fd5b50508035926020909101359150565b6000815180845260208085019450808401835b838110156126385781518752958201959082019060010161261c565b509495945050505050565b60008151808452815b818110156126685760208185018101518683018201520161264c565b818111156126795782602083870101525b50601f01601f19169290920160200192915050565b600080845461269c81612bb6565b600182811680156126b457600181146126c5576126f1565b60ff198416875282870194506126f1565b8886526020808720875b858110156126e85781548a8201529084019082016126cf565b50505082870194505b505050938152602001949350505050565b6001600160a01b0386811682528516602082015260a06040820181905260009061272e90830186612609565b82810360608401526127408186612609565b905082810360808401526127548185612643565b98975050505050505050565b6001600160a01b03868116825285166020820152604081018490526060810183905260a06080820181905260009061279a90830184612643565b979650505050505050565b6020815260006113726020830184612609565b6040815260006127cb6040830185612609565b82810360208401526127dd8185612609565b95945050505050565b6020815260006113726020830184612643565b6000602080835281845461280c81612bb6565b8084870152604060018084166000811461282d57600181146128415761286c565b60ff1985168984015260608901955061286c565b898852868820885b858110156128645781548b8201860152908301908801612849565b8a0184019650505b509398975050505050505050565b60208082526028908201527f455243313135353a204552433131353552656365697665722072656a656374656040820152676420746f6b656e7360c01b606082015260800190565b60208082526024908201527f455243313135353a206275726e20616d6f756e7420657863656564732062616c604082015263616e636560e01b606082015260800190565b60208082526029908201527f455243313135353a2063616c6c6572206973206e6f74206f776e6572206e6f7260408201526808185c1c1c9bdd995960ba1b606082015260800190565b60208082526025908201527f455243313135353a207472616e7366657220746f20746865207a65726f206164604082015264647265737360d81b606082015260800190565b60208082526023908201527f455243313135353a206275726e2066726f6d20746865207a65726f206164647260408201526265737360e81b606082015260800190565b6020808252602a908201527f455243313135353a20696e73756666696369656e742062616c616e636520666f60408201526939103a3930b739b332b960b11b606082015260800190565b6020808252818101527f4f776e61626c653a2063616c6c6572206973206e6f7420746865206f776e6572604082015260600190565b60208082526015908201527413585e08199959481c985d1948195e18d959591959605a1b604082015260600190565b60208082526014908201527313d3931657d0d491505513d497d0531313d5d15160621b604082015260600190565b60208082526028908201527f455243313135353a2069647320616e6420616d6f756e7473206c656e677468206040820152670dad2e6dac2e8c6d60c31b606082015260800190565b60208082526021908201527f455243313135353a206d696e7420746f20746865207a65726f206164647265736040820152607360f81b606082015260800190565b60006001600160401b03821115612b5557612b55612c4e565b5060051b60200190565b60008219821115612b7257612b72612c38565b500190565b600082612b9257634e487b7160e01b81526012600452602481fd5b500490565b6000816000190483118215151615612bb157612bb1612c38565b500290565b600181811c90821680612bca57607f821691505b60208210811415612beb57634e487b7160e01b600052602260045260246000fd5b50919050565b601f8201601f191681016001600160401b0381118282101715612c1657612c16612c4e565b6040525050565b6000600019821415612c3157612c31612c38565b5060010190565b634e487b7160e01b600052601160045260246000fd5b634e487b7160e01b600052604160045260246000fd5b600060033d1115612c7957600481823e5160e01c5b90565b600060443d1015612c8a5790565b6040516003193d81016004833e81513d6001600160401b038083116024840183101715612cb957505050505090565b8285019150815181811115612cd15750505050505090565b843d8701016020828501011115612ceb5750505050505090565b612cfa60208286010187612bf1565b509095945050505050565b6001600160e01b031981168114610b8857600080fdfe4a39dc06d4c0dbc64b70af90fd698a233a518aa5d07e595d983b8c0526c8f7fbc3d58168c5ae7397731d063d5bbf3d657854427343f4c083240f7aacaa2d0f626bb7ff708619ba0610cba295a58592e0451dee2622938c8755667688daf3529ba2646970667358221220c546628a6f876f68ef0c952425937ec873243c92e030fcd757467ef7c57a184a64736f6c63430008040033",
  "linkReferences": {},
  "deployedLinkReferences": {}
}