{
  "_format": "hh-sol-artifact-1",
  "contractName": "NFTMarketSolid",
  "sourceName": "contracts/NFTMarketSolid.sol",
  "abi": [
    {
      "inputs": [],
      "stateMutability": "nonpayable",
      "type": "constructor"
    },
    {
      "anonymous": false,
      "inputs": [
        {
          "indexed": true,
          "internalType": "address",
          "name": "previousOwner",
          "type": "address"
        },
        {
          "indexed": true,
          "internalType": "address",
          "name": "newOwner",
          "type": "address"
        }
      ],
      "name": "OwnershipTransferred",
      "type": "event"
    },
    {
      "anonymous": false,
      "inputs": [
        {
          "indexed": false,
          "internalType": "address",
          "name": "operator",
          "type": "address"
        },
        {
          "indexed": false,
          "internalType": "address",
          "name": "from",
          "type": "address"
        },
        {
          "indexed": false,
          "internalType": "uint256",
          "name": "tokenId",
          "type": "uint256"
        },
        {
          "indexed": false,
          "internalType": "uint256",
          "name": "value",
          "type": "uint256"
        },
        {
          "indexed": false,
          "internalType": "bytes",
          "name": "data",
          "type": "bytes"
        }
      ],
      "name": "eNFTReceived",
      "type": "event"
    },
    {
      "anonymous": false,
      "inputs": [
        {
          "indexed": true,
          "internalType": "uint256",
          "name": "id",
          "type": "uint256"
        },
        {
          "indexed": true,
          "internalType": "uint256",
          "name": "tokenId",
          "type": "uint256"
        },
        {
          "indexed": true,
          "internalType": "address",
          "name": "nft",
          "type": "address"
        },
        {
          "indexed": false,
          "internalType": "address",
          "name": "buyer",
          "type": "address"
        },
        {
          "indexed": false,
          "internalType": "uint256",
          "name": "price",
          "type": "uint256"
        },
        {
          "indexed": false,
          "internalType": "address",
          "name": "seller",
          "type": "address"
        }
      ],
      "name": "eNewSale",
      "type": "event"
    },
    {
      "inputs": [
        {
          "internalType": "uint256[]",
          "name": "pars",
          "type": "uint256[]"
        },
        {
          "internalType": "address[]",
          "name": "addr",
          "type": "address[]"
        },
        {
          "internalType": "bytes",
          "name": "signature",
          "type": "bytes"
        }
      ],
      "name": "finishSale",
      "outputs": [],
      "stateMutability": "nonpayable",
      "type": "function"
    },
    {
      "inputs": [
        {
          "internalType": "address payable",
          "name": "governanceContract",
          "type": "address"
        }
      ],
      "name": "initialize",
      "outputs": [],
      "stateMutability": "nonpayable",
      "type": "function"
    },
    {
      "inputs": [
        {
          "internalType": "address",
          "name": "",
          "type": "address"
        },
        {
          "internalType": "address",
          "name": "",
          "type": "address"
        },
        {
          "internalType": "uint256[]",
          "name": "",
          "type": "uint256[]"
        },
        {
          "internalType": "uint256[]",
          "name": "",
          "type": "uint256[]"
        },
        {
          "internalType": "bytes",
          "name": "",
          "type": "bytes"
        }
      ],
      "name": "onERC1155BatchReceived",
      "outputs": [
        {
          "internalType": "bytes4",
          "name": "",
          "type": "bytes4"
        }
      ],
      "stateMutability": "nonpayable",
      "type": "function"
    },
    {
      "inputs": [
        {
          "internalType": "address",
          "name": "operator",
          "type": "address"
        },
        {
          "internalType": "address",
          "name": "from",
          "type": "address"
        },
        {
          "internalType": "uint256",
          "name": "tokenId",
          "type": "uint256"
        },
        {
          "internalType": "uint256",
          "name": "value",
          "type": "uint256"
        },
        {
          "internalType": "bytes",
          "name": "data",
          "type": "bytes"
        }
      ],
      "name": "onERC1155Received",
      "outputs": [
        {
          "internalType": "bytes4",
          "name": "",
          "type": "bytes4"
        }
      ],
      "stateMutability": "nonpayable",
      "type": "function"
    },
    {
      "inputs": [
        {
          "internalType": "address",
          "name": "operator",
          "type": "address"
        },
        {
          "internalType": "address",
          "name": "from",
          "type": "address"
        },
        {
          "internalType": "uint256",
          "name": "tokenId",
          "type": "uint256"
        },
        {
          "internalType": "bytes",
          "name": "data",
          "type": "bytes"
        }
      ],
      "name": "onERC721Received",
      "outputs": [
        {
          "internalType": "bytes4",
          "name": "",
          "type": "bytes4"
        }
      ],
      "stateMutability": "nonpayable",
      "type": "function"
    },
    {
      "inputs": [],
      "name": "owner",
      "outputs": [
        {
          "internalType": "address",
          "name": "",
          "type": "address"
        }
      ],
      "stateMutability": "view",
      "type": "function"
    },
    {
      "inputs": [],
      "name": "renounceOwnership",
      "outputs": [],
      "stateMutability": "nonpayable",
      "type": "function"
    },
    {
      "inputs": [
        {
          "internalType": "bytes4",
          "name": "interfaceId",
          "type": "bytes4"
        }
      ],
      "name": "supportsInterface",
      "outputs": [
        {
          "internalType": "bool",
          "name": "",
          "type": "bool"
        }
      ],
      "stateMutability": "view",
      "type": "function"
    },
    {
      "inputs": [
        {
          "internalType": "address",
          "name": "newOwner",
          "type": "address"
        }
      ],
      "name": "transferOwnership",
      "outputs": [],
      "stateMutability": "nonpayable",
      "type": "function"
    }
  ],
  "bytecode": "0x608060405234801561001057600080fd5b5061001a33610023565b60018055610073565b600080546001600160a01b038381166001600160a01b0319831681178455604051919092169283917f8be0079c531659141344cd1fd0a4f28419497f9722a3daafe3b4186f6b6457e09190a35050565b612efb80620000836000396000f3fe608060405234801561001057600080fd5b50600436106100835760003560e01c806301ffc9a714610088578063150b7a02146100b0578063610d38ca146100dc578063715018a6146100f15780638da5cb5b146100f9578063bc197c811461010e578063c4d66de81461012d578063f23a6e6114610140578063f2fde38b14610153575b600080fd5b61009b610096366004612a98565b610166565b60405190151581526020015b60405180910390f35b6100c36100be36600461284f565b61019d565b6040516001600160e01b031990911681526020016100a7565b6100ef6100ea36600461299a565b610210565b005b6100ef611e55565b610101611e90565b6040516100a79190612b20565b6100c361011c3660046127a6565b63bc197c8160e01b95945050505050565b6100ef61013b36600461276e565b611e9f565b6100c361014e3660046128b8565b611f67565b6100ef61016136600461276e565b611fdd565b60006001600160e01b03198216630271189760e51b148061019757506301ffc9a760e01b6001600160e01b03198316145b92915050565b6000306001600160a01b038616146101b757506000610208565b600080516020612ea68339815191528585856001866040516101dd959493929190612b72565b60405180910390a1507f150b7a023d4804d13e8c85fb27262cb750cf6ba9f9dd3bb30d90f482ceeb4b1f5b949350505050565b8260028151811061023157634e487b7160e01b600052603260045260246000fd5b6020026020010151600260019054906101000a90046001600160a01b03166001600160a01b0316638de5b9956040518163ffffffff1660e01b815260040160206040518083038186803b15801561028757600080fd5b505afa15801561029b573d6000803e3d6000fd5b505050506040513d601f19601f820116820180604052508101906102bf9190612ac0565b81111561030b5760405162461bcd60e51b815260206004820152601560248201527413585e08199959481c985d1948195e18d959591959605a1b60448201526064015b60405180910390fd5b6002600154141561035e5760405162461bcd60e51b815260206004820152601f60248201527f5265656e7472616e637947756172643a207265656e7472616e742063616c6c006044820152606401610302565b600260015583516008146103ac5760405162461bcd60e51b81526020600482015260156024820152740eee4dedcce40d2dce840e0c2e4e640d8cadccee8d605b1b6044820152606401610302565b82516005146103f65760405162461bcd60e51b81526020600482015260166024820152750eee4dedcce40c2c8c8e440e0c2e4e640d8cadccee8d60531b6044820152606401610302565b60006001600160a01b03168360048151811061042257634e487b7160e01b600052603260045260246000fd5b60200260200101516001600160a01b0316141561047a5760405162461bcd60e51b815260206004820152601660248201527557726f6e672063757272656e6379206164647265737360501b6044820152606401610302565b60008460058151811061049d57634e487b7160e01b600052603260045260246000fd5b6020026020010151116104ed5760405162461bcd60e51b8152602060048201526018602482015277151bdbc81b1bddc81b999d081d1bdad95b88185b5bdd5b9d60421b6044820152606401610302565b600360008560068151811061051257634e487b7160e01b600052603260045260246000fd5b60209081029190910181015182528101919091526040016000205460ff161561056b5760405162461bcd60e51b815260206004820152600b60248201526a57726f6e67206e6f6e636560a81b6044820152606401610302565b6001600360008660068151811061059257634e487b7160e01b600052603260045260246000fd5b6020026020010151815260200190815260200160002060006101000a81548160ff0219169083151502179055506105c76125f4565b846007815181106105e857634e487b7160e01b600052603260045260246000fd5b602002602001015160001415610961578360038151811061061957634e487b7160e01b600052603260045260246000fd5b60200260200101516001600160a01b0316336001600160a01b031614806106c15750306001600160a01b0316638da5cb5b6040518163ffffffff1660e01b815260040160206040518083038186803b15801561067457600080fd5b505afa158015610688573d6000803e3d6000fd5b505050506040513d601f19601f820116820180604052508101906106ac919061278a565b6001600160a01b0316336001600160a01b0316145b61070d5760405162461bcd60e51b815260206004820152601e60248201527f596f7520617265206e6f7420746865206275796572206f722061646d696e00006044820152606401610302565b61088a8460018151811061073157634e487b7160e01b600052603260045260246000fd5b60200260200101518660018151811061075a57634e487b7160e01b600052603260045260246000fd5b60200260200101518760038151811061078357634e487b7160e01b600052603260045260246000fd5b6020026020010151886006815181106107ac57634e487b7160e01b600052603260045260246000fd5b6020026020010151308a6002815181106107d657634e487b7160e01b600052603260045260246000fd5b6020908102919091018101516040516001600160601b0319606098891b81169382019390935260348101969096526054860194909452607485019290925290931b909216609482015260a881019190915260c8015b60408051601f1981840301815282825280516020918201207b0ca2ba3432b932bab69029b4b3b732b21026b2b9b9b0b3b29d05199960211b84830152603c8085019190915282518085039091018152605c909301909152815191012090565b610100820190815260408051808201909152601281527107265636f7665726564207369676e657220360741b602082015290516108d191906108cc908661207d565b6120fc565b836000815181106108f257634e487b7160e01b600052603260045260246000fd5b60200260200101516001600160a01b03166109128261010001518561207d565b6001600160a01b03161461095c5760405162461bcd60e51b8152602060048201526011602482015270077726f6e67207369676e6174757265203607c1b6044820152606401610302565b610c34565b8360008151811061098257634e487b7160e01b600052603260045260246000fd5b60200260200101516001600160a01b0316336001600160a01b03161480610a2a5750306001600160a01b0316638da5cb5b6040518163ffffffff1660e01b815260040160206040518083038186803b1580156109dd57600080fd5b505afa1580156109f1573d6000803e3d6000fd5b505050506040513d601f19601f82011682018060405250810190610a15919061278a565b6001600160a01b0316336001600160a01b0316145b610a765760405162461bcd60e51b815260206004820152601f60248201527f596f7520617265206e6f74207468652073656c6c6572206f722061646d696e006044820152606401610302565b610b6784600181518110610a9a57634e487b7160e01b600052603260045260246000fd5b602002602001015186600181518110610ac357634e487b7160e01b600052603260045260246000fd5b602002602001015187600381518110610aec57634e487b7160e01b600052603260045260246000fd5b602002602001015188600681518110610b1557634e487b7160e01b600052603260045260246000fd5b60200260200101513060405160200161082b959493929190606095861b6001600160601b0319908116825260148201959095526034810193909352605483019190915290921b16607482015260880190565b61010082019081526040805180820190915260128152717265636f7665726564207369676e6572203160701b60208201529051610ba991906108cc908661207d565b83600381518110610bca57634e487b7160e01b600052603260045260246000fd5b60200260200101516001600160a01b0316610bea8261010001518561207d565b6001600160a01b031614610c345760405162461bcd60e51b815260206004820152601160248201527077726f6e67207369676e6174757265203160781b6044820152606401610302565b84600481518110610c5557634e487b7160e01b600052603260045260246000fd5b602002602001015160001415610d545783600181518110610c8657634e487b7160e01b600052603260045260246000fd5b60200260200101516001600160a01b031663e985e9c585600081518110610cbd57634e487b7160e01b600052603260045260246000fd5b6020026020010151306040518363ffffffff1660e01b8152600401610ce3929190612b58565b60206040518083038186803b158015610cfb57600080fd5b505afa158015610d0f573d6000803e3d6000fd5b505050506040513d601f19601f82011682018060405250810190610d339190612a7e565b610d4f5760405162461bcd60e51b815260040161030290612d0e565b610e3e565b83600181518110610d7557634e487b7160e01b600052603260045260246000fd5b60200260200101516001600160a01b031663e985e9c585600081518110610dac57634e487b7160e01b600052603260045260246000fd5b6020026020010151306040518363ffffffff1660e01b8152600401610dd2929190612b58565b60206040518083038186803b158015610dea57600080fd5b505afa158015610dfe573d6000803e3d6000fd5b505050506040513d601f19601f82011682018060405250810190610e229190612a7e565b610e3e5760405162461bcd60e51b815260040161030290612d0e565b84600381518110610e5f57634e487b7160e01b600052603260045260246000fd5b602002602001015184600481518110610e8857634e487b7160e01b600052603260045260246000fd5b60200260200101516001600160a01b031663dd62ed3e86600381518110610ebf57634e487b7160e01b600052603260045260246000fd5b6020026020010151306040518363ffffffff1660e01b8152600401610ee5929190612b58565b60206040518083038186803b158015610efd57600080fd5b505afa158015610f11573d6000803e3d6000fd5b505050506040513d601f19601f82011682018060405250810190610f359190612ac0565b1015610f835760405162461bcd60e51b815260206004820181905260248201527f43757272656e6379206e6f7420616c6c6f77656420746f207472616e736665726044820152606401610302565b60408051608081018252600080825260208201819052918101829052606080820192909252855190919086906001908110610fce57634e487b7160e01b600052603260045260246000fd5b60200260200101516001600160a01b03168760018151811061100057634e487b7160e01b600052603260045260246000fd5b60200260200101518860038151811061102957634e487b7160e01b600052603260045260246000fd5b602002602001015160405160240161104b929190918252602082015260400190565b60408051601f198184030181529181526020820180516001600160e01b031663152a902d60e11b179052516110809190612b04565b6000604051808303816000865af19150503d80600081146110bd576040519150601f19603f3d011682016040523d82523d6000602084013e6110c2565b606091505b50901515835260408051808201909152600d81526c2927aca0a62a2c902420ab229d60991b602082015283519192506110fa91612145565b81511561116e5761110c81600c61218a565b6001600160a01b03166020808401919091526111299082906121ef565b604080840182815260608501929092528051808201909152600d81526c3430bb32903937bcb0b63a3c9d60991b602080830191909152840151915161116e929061224d565b6000600260019054906101000a90046001600160a01b03169050806001600160a01b031663a64a3e916040518163ffffffff1660e01b815260040160206040518083038186803b1580156111c157600080fd5b505afa1580156111d5573d6000803e3d6000fd5b505050506040513d601f19601f820116820180604052508101906111f9919061278a565b8460a001906001600160a01b031690816001600160a01b031681525050806001600160a01b031663927b26b96040518163ffffffff1660e01b815260040160206040518083038186803b15801561124f57600080fd5b505afa158015611263573d6000803e3d6000fd5b505050506040513d601f19601f820116820180604052508101906112879190612ac0565b60e085015260408401516000606090910181905287516001600160a01b0383169163bcb47e9a918a91906112cb57634e487b7160e01b600052603260045260246000fd5b60200260200101516040518263ffffffff1660e01b81526004016112ef9190612b20565b60606040518083038186803b15801561130757600080fd5b505afa15801561131b573d6000803e3d6000fd5b505050506040513d601f19601f8201168201806040525081019061133f919061295c565b604080880180519215159183019190915260208201929092526001600160a01b0392831690525151161580159061137b57508360400151604001515b801561138f57506000846040015160200151115b156113ef576113e58460e001516113df8660400151602001518b6003815181106113c957634e487b7160e01b600052603260045260246000fd5b602002602001015161229990919063ffffffff16565b906122ac565b6040850151606001525b6114448460e001516113df8a60028151811061141b57634e487b7160e01b600052603260045260246000fd5b60200260200101518b6003815181106113c957634e487b7160e01b600052603260045260246000fd5b84606001818152505061151d8460e001516113df836001600160a01b0316639262ca148b60048151811061148857634e487b7160e01b600052603260045260246000fd5b60200260200101516040518263ffffffff1660e01b81526004016114ac9190612b20565b60206040518083038186803b1580156114c457600080fd5b505afa1580156114d8573d6000803e3d6000fd5b505050506040513d601f19601f820116820180604052508101906114fc9190612ac0565b8b6003815181106113c957634e487b7160e01b600052603260045260246000fd5b846080018181525050611587846060015161158186604001516060015161158187606001516115818a608001518f60038151811061156b57634e487b7160e01b600052603260045260246000fd5b60200260200101516122b890919063ffffffff16565b906122b8565b602085015260608085015160408601519091015160808601516115b592916115af91906122c4565b906122c4565b60c0850152865161165990889060039081106115e157634e487b7160e01b600052603260045260246000fd5b60200260200101518860008151811061160a57634e487b7160e01b600052603260045260246000fd5b602002602001015186602001518a60048151811061163857634e487b7160e01b600052603260045260246000fd5b60200260200101516001600160a01b03166122d0909392919063ffffffff16565b60c084015115611735576116cd604051806060016040528060348152602001612e72603491398560c0015160405180604001604052806002815260200161746f60f01b8152508a6000815181106116c057634e487b7160e01b600052603260045260246000fd5b602002602001015161232e565b611735876003815181106116f157634e487b7160e01b600052603260045260246000fd5b6020026020010151600260019054906101000a90046001600160a01b03168660c001518a60048151811061163857634e487b7160e01b600052603260045260246000fd5b6080840151156117d257806001600160a01b031663a465ad5f8560a001518960048151811061177457634e487b7160e01b600052603260045260246000fd5b602002602001015187608001516040518463ffffffff1660e01b815260040161179f93929190612b34565b600060405180830381600087803b1580156117b957600080fd5b505af11580156117cd573d6000803e3d6000fd5b505050505b606083015115611833576118338760038151811061180057634e487b7160e01b600052603260045260246000fd5b6020026020010151846020015185606001518a60048151811061163857634e487b7160e01b600052603260045260246000fd5b604084015160600151156118dc57806001600160a01b031663a465ad5f8560400151600001518960048151811061187a57634e487b7160e01b600052603260045260246000fd5b60200260200101518760400151606001516040518463ffffffff1660e01b81526004016118a993929190612b34565b600060405180830381600087803b1580156118c357600080fd5b505af11580156118d7573d6000803e3d6000fd5b505050505b6000846060015111801561192b575060006001600160a01b03168760028151811061191757634e487b7160e01b600052603260045260246000fd5b60200260200101516001600160a01b031614155b15611a61576119aa6040518060400160405280601d81526020017f747279696e6720746f207472616e736665722062726f6b657246656520000000815250856060015160405180604001604052806002815260200161746f60f01b8152508a6002815181106116c057634e487b7160e01b600052603260045260246000fd5b806001600160a01b031663a465ad5f886002815181106119da57634e487b7160e01b600052603260045260246000fd5b602002602001015189600481518110611a0357634e487b7160e01b600052603260045260246000fd5b602002602001015187606001516040518463ffffffff1660e01b8152600401611a2e93929190612b34565b600060405180830381600087803b158015611a4857600080fd5b505af1158015611a5c573d6000803e3d6000fd5b505050505b87600481518110611a8257634e487b7160e01b600052603260045260246000fd5b602002602001015160001415611b995786600181518110611ab357634e487b7160e01b600052603260045260246000fd5b60200260200101516001600160a01b03166342842e0e88600081518110611aea57634e487b7160e01b600052603260045260246000fd5b602002602001015189600381518110611b1357634e487b7160e01b600052603260045260246000fd5b60200260200101518b600181518110611b3c57634e487b7160e01b600052603260045260246000fd5b60200260200101516040518463ffffffff1660e01b8152600401611b6293929190612b34565b600060405180830381600087803b158015611b7c57600080fd5b505af1158015611b90573d6000803e3d6000fd5b50505050611cf2565b86600181518110611bba57634e487b7160e01b600052603260045260246000fd5b60200260200101516001600160a01b031663f242432a88600081518110611bf157634e487b7160e01b600052603260045260246000fd5b602002602001015189600381518110611c1a57634e487b7160e01b600052603260045260246000fd5b60200260200101518b600181518110611c4357634e487b7160e01b600052603260045260246000fd5b60200260200101518c600581518110611c6c57634e487b7160e01b600052603260045260246000fd5b60209081029190910101516040516001600160e01b031960e087901b1681526001600160a01b0394851660048201529390921660248401526044830152606482015260a06084820152600060a482015260c401600060405180830381600087803b158015611cd957600080fd5b505af1158015611ced573d6000803e3d6000fd5b505050505b86600181518110611d1357634e487b7160e01b600052603260045260246000fd5b60200260200101516001600160a01b031688600181518110611d4557634e487b7160e01b600052603260045260246000fd5b602002602001015189600081518110611d6e57634e487b7160e01b600052603260045260246000fd5b60200260200101517fe70a440ca0972428ed2e7ceabdb67cfc06888f493b392cd548f993cbc1c8e1b38a600381518110611db857634e487b7160e01b600052603260045260246000fd5b60200260200101518c600381518110611de157634e487b7160e01b600052603260045260246000fd5b60200260200101518c600081518110611e0a57634e487b7160e01b600052603260045260246000fd5b6020026020010151604051611e3f939291906001600160a01b0393841681526020810192909252909116604082015260600190565b60405180910390a4505060018055505050505050565b33611e5e611e90565b6001600160a01b031614611e845760405162461bcd60e51b815260040161030290612cd9565b611e8e6000612377565b565b6000546001600160a01b031690565b806001600160a01b038116611eb357600080fd5b33611ebc611e90565b6001600160a01b031614611ee25760405162461bcd60e51b815260040161030290612cd9565b60025460ff1615611f355760405162461bcd60e51b815260206004820181905260248201527f696e697469616c697a653a20416c726561647920696e697469616c697a6564216044820152606401610302565b506002805460ff196001600160a01b0390931661010002929092166001600160a81b0319909216919091176001179055565b6000306001600160a01b03881614611f8157506000611fd3565b600080516020612ea6833981519152878787878787604051611fa896959493929190612bac565b60405180910390a1507ff23a6e612e1ff4830e658fe43f4e3cb4a5f8170bd5d9e69fb5d7a7fa9e4fdf975b9695505050505050565b33611fe6611e90565b6001600160a01b03161461200c5760405162461bcd60e51b815260040161030290612cd9565b6001600160a01b0381166120715760405162461bcd60e51b815260206004820152602660248201527f4f776e61626c653a206e6577206f776e657220697320746865207a65726f206160448201526564647265737360d01b6064820152608401610302565b61207a81612377565b50565b60008060008061208c856123c7565b6040805160008152602081018083528b905260ff8516918101919091526060810183905260808101829052929550909350915060019060a0016020604051602081039080840390855afa1580156120e7573d6000803e3d6000fd5b5050604051601f190151979650505050505050565b6121418282604051602401612112929190612c18565b60408051601f198184030181529190526020810180516001600160e01b031663319af33360e01b1790526123f6565b5050565b612141828260405160240161215b929190612c70565b60408051601f198184030181529190526020810180516001600160e01b031663c3b5563560e01b1790526123f6565b6000612197826014612d96565b835110156121df5760405162461bcd60e51b8152602060048201526015602482015274746f416464726573735f6f75744f66426f756e647360581b6044820152606401610302565b500160200151600160601b900490565b60006121fc826020612d96565b835110156122445760405162461bcd60e51b8152602060048201526015602482015274746f55696e743235365f6f75744f66426f756e647360581b6044820152606401610302565b50016020015190565b61229483838360405160240161226593929190612c42565b60408051601f198184030181529190526020810180516001600160e01b03166307c8121760e01b1790526123f6565b505050565b60006122a58284612dce565b9392505050565b60006122a58284612dae565b60006122a58284612ded565b60006122a58284612d96565b612328846323b872dd60e01b8585856040516024016122f193929190612b34565b60408051601f198184030181529190526020810180516001600160e01b03166001600160e01b031990931692909217909152612417565b50505050565b612328848484846040516024016123489493929190612c94565b60408051601f198184030181529190526020810180516001600160e01b031663bb7235e960e01b1790526123f6565b600080546001600160a01b038381166001600160a01b0319831681178455604051919092169283917f8be0079c531659141344cd1fd0a4f28419497f9722a3daafe3b4186f6b6457e09190a35050565b600080600083516041146123da57600080fd5b5050506020810151604082015160609092015160001a92909190565b80516a636f6e736f6c652e6c6f67602083016000808483855afa5050505050565b600061246c826040518060400160405280602081526020017f5361666545524332303a206c6f772d6c6576656c2063616c6c206661696c6564815250856001600160a01b03166124e99092919063ffffffff16565b805190915015612294578080602001905181019061248a9190612a7e565b6122945760405162461bcd60e51b815260206004820152602a60248201527f5361666545524332303a204552433230206f7065726174696f6e20646964206e6044820152691bdd081cdd58d8d9595960b21b6064820152608401610302565b6060610208848460008585843b6125425760405162461bcd60e51b815260206004820152601d60248201527f416464726573733a2063616c6c20746f206e6f6e2d636f6e74726163740000006044820152606401610302565b600080866001600160a01b0316858760405161255e9190612b04565b60006040518083038185875af1925050503d806000811461259b576040519150601f19603f3d011682016040523d82523d6000602084013e6125a0565b606091505b50915091506125b08282866125bb565b979650505050505050565b606083156125ca5750816122a5565b8251156125da5782518084602001fd5b8160405162461bcd60e51b81526004016103029190612c05565b6040518061012001604052806000815260200160008152602001612644604051806080016040528060006001600160a01b0316815260200160008152602001600015158152602001600081525090565b8152602001600081526020016000815260200160006001600160a01b031681526020016000815260200160008152602001600080191681525090565b600082601f830112612690578081fd5b813560206126a56126a083612d73565b612d43565b80838252828201915082860187848660051b89010111156126c4578586fd5b855b858110156126e2578135845292840192908401906001016126c6565b5090979650505050505050565b805180151581146126ff57600080fd5b919050565b600082601f830112612714578081fd5b81356001600160401b0381111561272d5761272d612e46565b612740601f8201601f1916602001612d43565b818152846020838601011115612754578283fd5b816020850160208301379081016020019190915292915050565b60006020828403121561277f578081fd5b81356122a581612e5c565b60006020828403121561279b578081fd5b81516122a581612e5c565b600080600080600060a086880312156127bd578081fd5b85356127c881612e5c565b945060208601356127d881612e5c565b935060408601356001600160401b03808211156127f3578283fd5b6127ff89838a01612680565b94506060880135915080821115612814578283fd5b61282089838a01612680565b93506080880135915080821115612835578283fd5b5061284288828901612704565b9150509295509295909350565b60008060008060808587031215612864578384fd5b843561286f81612e5c565b9350602085013561287f81612e5c565b92506040850135915060608501356001600160401b038111156128a0578182fd5b6128ac87828801612704565b91505092959194509250565b60008060008060008060a087890312156128d0578081fd5b86356128db81612e5c565b955060208701356128eb81612e5c565b9450604087013593506060870135925060808701356001600160401b0380821115612914578283fd5b818901915089601f830112612927578283fd5b813581811115612935578384fd5b8a6020828501011115612946578384fd5b6020830194508093505050509295509295509295565b600080600060608486031215612970578283fd5b835161297b81612e5c565b60208501519093509150612991604085016126ef565b90509250925092565b6000806000606084860312156129ae578081fd5b83356001600160401b03808211156129c4578283fd5b6129d087838801612680565b94506020915081860135818111156129e6578384fd5b8601601f810188136129f6578384fd5b8035612a046126a082612d73565b8082825285820191508584018b878560051b8701011115612a23578788fd5b8794505b83851015612a4e578035612a3a81612e5c565b835260019490940193918601918601612a27565b5096505050506040860135915080821115612a67578283fd5b50612a7486828701612704565b9150509250925092565b600060208284031215612a8f578081fd5b6122a5826126ef565b600060208284031215612aa9578081fd5b81356001600160e01b0319811681146122a5578182fd5b600060208284031215612ad1578081fd5b5051919050565b60008151808452612af0816020860160208601612e04565b601f01601f19169290920160200192915050565b60008251612b16818460208701612e04565b9190910192915050565b6001600160a01b0391909116815260200190565b6001600160a01b039384168152919092166020820152604081019190915260600190565b6001600160a01b0392831681529116602082015260400190565b6001600160a01b03868116825285166020820152604081018490526060810183905260a0608082018190526000906125b090830184612ad8565b6001600160a01b03878116825286166020820152604081018590526060810184905260a06080820181905281018290526000828460c084013781830160c090810191909152601f909201601f1916010195945050505050565b6020815260006122a56020830184612ad8565b604081526000612c2b6040830185612ad8565b905060018060a01b03831660208301529392505050565b606081526000612c556060830186612ad8565b6001600160a01b039490941660208301525060400152919050565b604081526000612c836040830185612ad8565b905082151560208301529392505050565b608081526000612ca76080830187612ad8565b8560208401528281036040840152612cbf8186612ad8565b91505060018060a01b038316606083015295945050505050565b6020808252818101527f4f776e61626c653a2063616c6c6572206973206e6f7420746865206f776e6572604082015260600190565b6020808252601b908201527a27232a103737ba1030b63637bbb2b2103a37903a3930b739b332b960291b604082015260600190565b604051601f8201601f191681016001600160401b0381118282101715612d6b57612d6b612e46565b604052919050565b60006001600160401b03821115612d8c57612d8c612e46565b5060051b60200190565b60008219821115612da957612da9612e30565b500190565b600082612dc957634e487b7160e01b81526012600452602481fd5b500490565b6000816000190483118215151615612de857612de8612e30565b500290565b600082821015612dff57612dff612e30565b500390565b60005b83811015612e1f578181015183820152602001612e07565b838111156123285750506000910152565b634e487b7160e01b600052601160045260246000fd5b634e487b7160e01b600052604160045260246000fd5b6001600160a01b038116811461207a57600080fdfe747279696e6720746f207472616e73666572206572633230206665657320746f20676f7665726e616e636520636f6e747261637428c243b954a9be53657f9c134247a684abba6aed90b600a2a848c2b07c752f22a26469706673582212200ba2865a9bf48e5546a498a511e2151b44b8aa2181756bafb365c8284eee587164736f6c63430008040033",
  "linkReferences": {},
  "deployedLinkReferences": {}
}